:020000040800F2
:1000000000400020290A0008A5090008AB090008E3
:10001000B1090008B7090008BD0900080000000088
:10002000000000000000000000000000C3090008FC
:10003000CF09000800000000DB090008E7090008FC
:10004000790A0008790A0008790A0008790A000884
:10005000790A0008790A0008790A0008790A000874
:10006000790A0008790A0008790A0008790A000864
:10007000790A0008790A0008790A0008F5090008D9
:10008000790A0008790A0008790A0008790A000844
:10009000790A0008790A0008790A0008790A000834
:1000A000790A0008790A0008790A0008790A000824
:1000B000790A00080000000000000000790A00082A
:1000C000790A0008790A0008790A0008000000008F
:1000D000790A0008090A0008790A0008790A000864
:1000E000790A0008790A0008790A0008000000006F
:1000F0000000000000000000000000000000000000
:10010000000000000000000000000000790A000864
:100110000000000000000000790A00080000000054
:1001200000000000000000000000000000000000CF
:1001300000000000000000000000000000000000BF
:10014000790A0008790A0008000000000000000099
:10015000000000000000000000000000000000009F
:10016000790A0008790A0008790A0008790A000863
:10017000790A0008000000000000000000000000F4
:0801800000000000790A0008EC
:1001880010B5054C237833B9044B13B10448AFF3C9
:1001980000800123237010BD3C04002000000000F3
:1001A800EC3F000808B5034B1BB103490348AFF304
:1001B800008008BD0000000040040020EC3F00085B
:1001C800844641EA000313F003036DD1403A41D35A
:1001D80051F8043B40F8043B51F8043B40F8043B19
:1001E80051F8043B40F8043B51F8043B40F8043B09
:1001F80051F8043B40F8043B51F8043B40F8043BF9
:1002080051F8043B40F8043B51F8043B40F8043BE8
:1002180051F8043B40F8043B51F8043B40F8043BD8
:1002280051F8043B40F8043B51F8043B40F8043BC8
:1002380051F8043B40F8043B51F8043B40F8043BB8
:1002480051F8043B40F8043B51F8043B40F8043BA8
:10025800403ABDD2303211D351F8043B40F8043B48
:1002680051F8043B40F8043B51F8043B40F8043B88
:1002780051F8043B40F8043B103AEDD20C3205D358
:1002880051F8043B40F8043B043AF9D2043208D050
:10029800D2071CBF11F8013B00F8013B01D30B88C2
:1002A80003806046704700BF082A13D38B078DD0A0
:1002B80010F003038AD0C3F10403D21ADB071CBF72
:1002C80011F8013B00F8013B80D331F8023B20F8DC
:1002D800023B7BE7043AD9D3013A11F8013B00F815
:1002E800013BF9D20B7803704B7843708B7883709D
:1002F8006046704780B500AF0F4B04221A7000F0BB
:10030800B9FB00F021F800F033F900F013F900F020
:10031800E1F800F0AFF800F06FF8642207490848E8
:1003280002F0F0FE4FF40051064801F0CAF86420CC
:1003380000F002FCF6E700BFB8060020F005002038
:10034800A40400200004004880B59CB000AF07F169
:10035800480328220021184603F082FD07F13403E0
:1003680000221A605A609A60DA601A613B463422A9
:100378000021184603F074FD0223BB640123BB650A
:100388001023FB6502237B660023BB664FF46013D2
:10039800FB6607F14803184601F0D0F90346002B25
:1003A80001D000F0C9F90F237B630223BB6300234C
:1003B800FB634FF480633B6400237B6407F13403E1
:1003C8000221184602F0F8F90346002B01D000F08C
:1003D800B3F921233B600023BB600023FB603B464D
:1003E800184602F01BFC0346002B01D000F0A4F9CC
:1003F80000BF7037BD4680BD80B500AF1B4B1C4A9F
:100408001A601A4B40F20B225A60184B00229A606D
:10041800164B0122DA60154B00221A61134B002299
:100428005A61124B00229A61104B0022DA610F4B7D
:1004380000221A620D4801F05DF80346002B01D036
:1004480000F07AF90021094801F0E3F80346002B8F
:1004580001D000F071F90021044801F024F90346A5
:10046800002B01D000F068F900BF80BD58040020BF
:100478000054004080B500AF144B154A1A60134B66
:100488004FF416525A60114B00229A600F4B00220B
:10049800DA600E4B00221A610C4B0C225A610B4B8E
:1004A80000229A61094B0022DA61084B00221A6285
:1004B800064B00225A62054802F042FD0346002B13
:1004C80001D000F039F900BF80BD00BFA4040020AE
:1004D8000038014080B500AF144B154A1A60134B21
:1004E8004FF416525A60114B00229A600F4B0022AB
:1004F800DA600E4B00221A610C4B0C225A610B4B2E
:1005080000229A61094B0022DA61084B00221A6224
:10051800064B00225A62054802F012FD0346002BE2
:1005280001D000F009F900BF80BD00BF28050020F8
:100538000044004080B582B000AF0C4B5B690B4AA9
:1005480043F001035361094B5B6903F001037B60CE
:100558007B68002200210F2000F0E9FB0F2000F04B
:1005680002FC00BF0837BD4680BD00BF0010024036
:1005780080B58AB000AF07F1140300221A605A60F0
:100588009A60DA601A612B4B5B692A4A43F40023AC
:100598005361284B5B6903F400233B613B69254B9E
:1005A8005B69244A43F480035361224B5B6903F47B
:1005B8008003FB60FB681F4B5B691E4A43F40033F2
:1005C80053611C4B5B6903F40033BB60BB68194B78
:1005D8005B69184A43F480235361164B5B6903F443
:1005E80080237B607B6800224FF40051124800F0A2
:1005F80051FF4FF400537B61104BBB610023FB613B
:1006080007F1140319460E4800F0D2FD4FF40053C9
:100618007B610123BB610023FB6100233B6207F17F
:1006280014031946044800F0C3FD00BF2837BD462F
:1006380080BD00BF001002400004004800002110E7
:100648000008004880B588B000AF7860364A374B5C
:100658001046194664231A46FFF7B2FD0023FB61D2
:1006680002E0FB690133FB61314AFB6913441B78E3
:10067800042BF6D100233B610023BB6100237B617F
:100688003BE0294A7B6913441B780A2B2AD17B69F2
:100698003B61FB69002B01D00123FB60FB69244A05
:1006A8009818BB69204A99187A69BB69D31A01332B
:1006B8001A46FFF785FD1E4B1B794C2B10D17B6921
:1006C8009AB2BB699BB2D31A9AB2FB699BB2134424
:1006D8009BB201339AB20A231549164802F07EFCF0
:1006E8000023FB61104A7B6913441B78242B01D13A
:1006F8007B69BB617B6901337B617B69632BC0DDEF
:10070800BB69094A9918BB69C3F164031A460848CA
:10071800FFF756FDBB69C3F16403054A0421D154B0
:1007280000BF2037BD4680BD54060020F0050020DC
:10073800B80600202805002080B400AF72B600BFBC
:10074800FEE7000080B582B000AF0F4B9B690E4AF0
:1007580043F0010393610C4B9B6903F001037B6039
:100768007B68094BDB69084A43F08053D361064B29
:10077800DB6903F080533B603B68072000F0CCFA4C
:1007880000BF0837BD4680BD0010024080B58AB062
:1007980000AF786007F1140300221A605A609A606B
:1007A800DA601A617B681B68264A934245D1264B5A
:1007B8005B69254A43F400335361234B5B6903F4B7
:1007C80000333B613B69204B5B691F4A43F480233C
:1007D80053611D4B5B6903F48023FB60FB684FF496
:1007E80000437B611223BB610123FB6103233B624E
:1007F80004237B6207F1140319464FF0904000F080
:10080800D7FC80237B611223BB610123FB61032397
:100818003B6204237B6207F1140319460B4800F07E
:10082800C7FC094BDB69084A43F40013D361064B44
:10083800DB6903F40013BB60BB6800BF2837BD4603
:1008480080BD00BF00540040001002400004004872
:1008580080B58CB000AF786007F11C0300221A60E5
:100868005A609A60DA601A617B681B68454A93424D
:1008780056D1454B9B69444A43F480439361424BAC
:100888009B6903F48043BB61BB693F4B5B693E4A8C
:1008980043F4002353613C4B5B6903F400237B6101
:1008A8007B693023FB6102233B6200237B620323C5
:1008B800BB620723FB6207F11C031946334800F0AB
:1008C80077FC334B334A1A60314B00225A60304B65
:1008D80000229A602E4B8022DA602D4B00221A618A
:1008E8002B4B00225A612A4B20229A61284B002266
:1008F800DA61274800F051FA0346002B01D0FFF7D0
:100908001BFF7B68224A1A67214A7B6853620022D0
:100918000021252000F00BFA252000F024FA2DE014
:100928007B681B681C4A934228D1174BDB69164A1F
:1009380043F40033D361144BDB6903F400333B61A8
:100948003B69114B5B69104A43F4003353610E4B0A
:100958005B6903F40033FB60FB680C23FB61022333
:100968003B6200237B620023BB620723FB6207F123
:100978001C0319464FF0904000F01AFC00BF3037B6
:10098800BD4680BD00380140001002400008004804
:10099800AC050020580002400044004080B400AF7D
:1009A800FEE780B400AFFEE780B400AFFEE780B496
:1009B80000AFFEE780B400AFFEE780B400AF00BF31
:1009C800BD4680BC704780B400AF00BFBD4680BC48
:1009D800704780B400AF00BFBD4680BC704780B58B
:1009E80000AF00F08DF800BF80BD000080B500AFFB
:1009F800024800F0EEFA00BF80BD00BFAC05002041
:100A080080B500AF024802F0BBFB00BF80BD00BF4D
:100A1800A404002080B400AF00BFBD4680BC70476E
:100A2800DFF834D00D480E490E4A002302E0D458AE
:100A3800C4500433C4188C42F9D30B4A0B4C00231E
:100A480001E013600432A242FBD3FFF7E3FF03F097
:100A5800E3F9FFF74FFCFEE700400020000000200C
:100A68003C0400204C4000083C04002024070020DF
:100A7800FEE7000080B500AF084B1B68074A43F04B
:100A880010031360032000F047F9002000F008F875
:100A9800FFF758FE0023184680BD00BF0020024023
:100AA80080B582B000AF7860124B1A68124B1B7881
:100AB80019464FF47A73B3FBF1F3B2FBF3F318461C
:100AC80000F05FF90346002B01D001230EE07B689C
:100AD8000F2B0AD8002279684FF0FF3000F027F971
:100AE800064A7B681360002300E001231846083794
:100AF800BD4680BD00000020080000200400002042
:100B080080B400AF054B1B781A46054B1B6813448D
:100B1800034A136000BFBD4680BC70470800002030
:100B28001C07002080B400AF024B1B681846BD4666
:100B380080BC70471C07002080B584B000AF786087
:100B4800FFF7F0FFB8607B68FB60FB68B3F1FF3F1D
:100B580005D00A4B1B781A46FB681344FB6000BF9C
:100B6800FFF7E0FF0246BB68D31AFA689A42F7D843
:100B780000BF00BF1037BD4680BD00BF0800002081
:100B880080B485B000AF78607B6803F00703FB6032
:100B98000C4BDB68BB60BA684FF6FF031340BB60C1
:100BA800FB681A02BB68134343F0BF6343F4003386
:100BB800BB60044ABB68D36000BF1437BD4680BC25
:100BC800704700BF00ED00E080B400AF044BDB6865
:100BD8001B0A03F007031846BD4680BC704700BFD8
:100BE80000ED00E080B483B000AF0346FB7197F9D5
:100BF8000730002B0BDBFB7903F01F02064997F93E
:100C080007305B09012000FA02F241F8232000BFF7
:100C18000C37BD4680BC704700E100E080B483B06B
:100C280000AF03463960FB7197F90730002B0ADBE8
:100C38003B68DAB20C4997F907301201D2B20B447B
:100C480083F800230AE03B68DAB20849FB7903F02D
:100C58000F03043B1201D2B20B441A7600BF0C37C3
:100C6800BD4680BC704700BF00E100E000ED00E039
:100C780080B489B000AFF860B9607A60FB6803F0AF
:100C88000703FB61FB69C3F10703042B28BF042397
:100C9800BB61FB690433062B02D9FB69033B00E007
:100CA80000237B614FF0FF32BB6902FA03F3DA439A
:100CB800BB681A407B699A404FF0FF317B6901FAA3
:100CC80003F3D9437B680B40134318462437BD46CA
:100CD80080BC704780B582B000AF78607B68013B0C
:100CE800B3F1807F01D301230FE00A4A7B68013BFF
:100CF80053600F214FF0FF30FFF790FF054B0022A4
:100D08009A60044B07221A60002318460837BD462C
:100D180080BD00BF10E000E080B582B000AF786011
:100D28007868FFF72DFF00BF0837BD4680BD80B546
:100D380086B000AF0346B9607A60FB7300237B611D
:100D4800FFF742FF78617A68B9687869FFF790FF22
:100D5800024697F90F3011461846FFF75FFF00BFAC
:100D68001837BD4680BD80B582B000AF0346FB7121
:100D780097F907301846FFF735FF00BF0837BD461B
:100D880080BD80B582B000AF78607868FFF7A2FFB9
:100D9800034618460837BD4680BD80B584B000AF0D
:100DA80078600023FB607B68002B01D1012337E0CA
:100DB8007B68022283F821207B681B681B68FB6024
:100DC800FB6823F47F5323F03003FB607B685A6889
:100DD8007B689B681A437B68DB681A437B681B69DE
:100DE8001A437B685B691A437B689B691A437B6873
:100DF800DB691343FA681343FB607B681B68FA6876
:100E08001A60786800F0B6F97B6800229A637B68FC
:100E1800012283F821207B68002283F82020002308
:100E280018461037BD4680BD80B586B000AFF86063
:100E3800B9607A603B600023FB75FB6893F820304B
:100E4800012B01D102234AE0FB68012283F820200C
:100E5800FB6893F82130012B3AD1FB68022283F812
:100E68002120FB6800229A63FB681B681A68FB68EC
:100E78001B6822F001021A603B687A68B968F86852
:100E880000F04AF9FB68DB6A002B08D0FB681B6896
:100E98001A68FB681B6842F00E021A600FE0FB68D4
:100EA8001B681A68FB681B6842F00A021A60FB6834
:100EB8001B681A68FB681B6822F004021A60FB684A
:100EC8001B681A68FB681B6842F001021A6005E09B
:100ED800FB68002283F820200223FB75FB7D18465F
:100EE8001837BD4680BD80B483B000AF78607B689A
:100EF80093F82130022B08D07B6804229A637B6820
:100F0800002283F82020012320E07B681B681A68F0
:100F18007B681B6822F00E021A607B681B681A68DF
:100F28007B681B6822F001021A607B681A6C7B6878
:100F3800DB6B012101FA02F25A607B68012283F817
:100F480021207B68002283F82020002318460C37D4
:100F5800BD4680BC704780B584B000AF7860002380
:100F6800FB737B6893F82130022B05D07B68042241
:100F78009A630123FB7327E07B681B681A687B6808
:100F88001B6822F00E021A607B681B681A687B686F
:100F98001B6822F001021A607B681A6C7B68DB6BA5
:100FA800012101FA02F25A607B68012283F82120AC
:100FB8007B68002283F820207B685B6B002B03D0C2
:100FC8007B685B6B78689847FB7B18461037BD4693
:100FD80080BD80B584B000AF78607B68DB6B1B6830
:100FE800FB607B681B681B68BB607B681B6C04220A
:100FF8009A40FB681340002B24D0BB6803F004031D
:10100800002B1FD07B681B681B6803F02003002B94
:1010180007D17B681B681A687B681B6822F004028A
:101028001A607B681A6C7B68DB6B042101FA02F298
:101038005A607B68DB6A002B6AD07B68DB6A786859
:10104800984765E07B681B6C02229A40FB68134056
:10105800002B2CD0BB6803F00203002B27D07B6841
:101068001B681B6803F02003002B0BD17B681B68EF
:101078001A687B681B6822F00A021A607B680122E2
:1010880083F821207B681A6C7B68DB6B022101FAEC
:1010980002F25A607B68002283F820207B689B6AF2
:1010A800002B35D07B689B6A7868984730E07B686E
:1010B8001B6C08229A40FB681340002B28D0BB68A1
:1010C80003F00803002B23D07B681B681A687B6831
:1010D8001B6822F00E021A607B681A6C7B68DB6B57
:1010E800012101FA02F25A607B6801229A637B6847
:1010F800012283F821207B68002283F820207B6866
:101108001B6B002B04D07B681B6B78689847FFE744
:1011180000BF1037BD4680BD80B485B000AFF86011
:10112800B9607A603B60FB681A6CFB68DB6B012175
:1011380001FA02F25A60FB681B683A685A60FB6859
:101148005B68102B08D1FB681B687A689A60FB689B
:101158001B68BA68DA6007E0FB681B68BA689A60BF
:10116800FB681B687A68DA6000BF1437BD4680BC2C
:101178007047000080B483B000AF78607B681B685C
:101188001A46084B1344084AA2FB03231B099A007A
:101198007B681A647B68054ADA6300BF0C37BD4672
:1011A80080BC7047F8FFFDBFCDCCCCCC000002401E
:1011B80080B487B000AF7860396000237B614EE16E
:1011C8003B681A6801217B6901FA03F31340FB604D
:1011D800FB68002B00F040813B685B68012B0BD05B
:1011E8003B685B68022B07D03B685B68112B03D018
:1011F8003B685B68122B30D17B689B683B617B69DD
:101208005B00032202FA03F3DB433A6913403B61B4
:101218003B68DA687B695B0002FA03F33A691343B7
:101228003B617B683A699A607B685B683B61012235
:101238007B6902FA03F3DB433A6913403B613B687D
:101248005B681B0903F001027B6902FA03F33A6940
:1012580013433B617B683A695A607B68DB683B6192
:101268007B695B00032202FA03F3DB433A6913400C
:101278003B613B689A687B695B0002FA03F33A6951
:1012880013433B617B683A69DA603B685B68022B11
:1012980003D03B685B68122B23D17B69DA087B6833
:1012A800083253F822303B617B6903F007039B0047
:1012B8000F2202FA03F3DB433A6913403B613B68B0
:1012C8001A697B6903F007039B0002FA03F33A6982
:1012D80013433B617B69DA087B680832396943F854
:1012E80022107B681B683B617B695B00032202FA62
:1012F80003F3DB433A6913403B613B685B6803F0E7
:1013080003027B695B0002FA03F33A6913433B610A
:101318007B683A691A603B685B6803F08053002B6E
:1013280000F09A80554B9B69544A43F0010393613E
:10133800524B9B6903F00103BB60BB68504A7B6951
:101348009B08023352F823303B617B6903F00303A7
:101358009B000F2202FA03F3DB433A6913403B6117
:101368007B68B3F1904F13D07B68464A93420DD007
:101378007B68454A934207D07B68444A934201D12F
:10138800032306E0052304E0022302E0012300E032
:1013980000237A6902F00302920093403A691343EA
:1013A8003B6137497B699B0802333A6941F823203E
:1013B800374B1B683B61FB68DB433A6913403B6171
:1013C8003B685B6803F48033002B03D03A69FB6801
:1013D80013433B612E4A3B6913602D4B5B683B61AD
:1013E800FB68DB433A6913403B613B685B6803F485
:1013F8000033002B03D03A69FB6813433B61244A4E
:101408003B695360224B9B683B61FB68DB433A694D
:1014180013403B613B685B6803F48013002B03D0E7
:101428003A69FB6813433B61194A3B699360184B5F
:10143800DB683B61FB68DB433A6913403B613B680F
:101448005B6803F40013002B03D03A69FB6813436D
:101458003B610F4A3B69D3607B6901337B613B6821
:101468001A687B6922FA03F3002B7FF4A9AE00BF48
:1014780000BF1C37BD4680BC704700BF001002404B
:10148800000001400004004800080048000C004823
:101498000004014080B483B000AF78600B467B80C5
:1014A80013467B707B78002B03D07A887B689A611F
:1014B80002E07A887B689A6200BF0C37BD4680BC20
:1014C800704780B485B000AF78600B467B807B683E
:1014D8005B69FB607A88FB6813401A04FB68D94390
:1014E8007B880B401A437B689A6100BF1437BD465E
:1014F80080BC704780B582B000AF78607B68002BF5
:1015080001D1012381E07B6893F84130DBB2002BE5
:1015180006D17B68002283F840207868FFF736F907
:101528007B68242283F841207B681B681A687B68E3
:101538001B6822F001021A607B685A687B681B6886
:1015480022F070621A617B681B689A687B681B6866
:1015580022F400429A607B68DB68012B07D17B6824
:101568009A687B681B6842F400429A6006E07B68D0
:101578009A687B681B6842F404429A607B68DB685F
:10158800022B04D17B681B684FF400625A607B68A9
:101598001B685B687A68126843F0007343F4004381
:1015A80053607B681B68DA687B681B6822F400421A
:1015B800DA607B681A697B685B6942EA03017B68C9
:1015C8009B691A027B681B680A43DA607B68D969E1
:1015D8007B681A6A7B681B680A431A607B681B6809
:1015E8001A687B681B6842F001021A607B68002257
:1015F8005A647B68202283F841207B6800221A63A2
:101608007B68002283F84220002318460837BD462D
:1016180080BD80B483B000AF786039607B6893F890
:101628004130DBB2202B38D17B6893F84030012B56
:1016380001D1022332E07B68012283F840207B68D5
:10164800242283F841207B681B681A687B681B6822
:1016580022F001021A607B681B681A687B681B68A5
:1016680022F480521A607B681B6819687B681B68C3
:101678003A680A431A607B681B681A687B681B68AB
:1016880042F001021A607B68202283F841207B68BF
:10169800002283F84020002300E0022318460C377C
:1016A800BD4680BC704780B485B000AF78603960B3
:1016B8007B6893F84130DBB2202B39D17B6893F8F3
:1016C8004030012B01D1022333E07B68012283F8EB
:1016D80040207B68242283F841207B681B681A68B5
:1016E8007B681B6822F001021A607B681B681B6814
:1016F800FB60FB6823F47063FB603B681B02FA68BD
:101708001343FB607B681B68FA681A607B681B6878
:101718001A687B681B6842F001021A607B68202205
:1017280083F841207B68002283F84020002300E0F2
:10173800022318461437BD4680BC704780B5ADF506
:10174800007D00AF07F50073A3F5FE73186007F579
:101758000073A3F5FE731B68002B02D1012301F06F
:1017680023B807F50073A3F5FE731B681B6803F025
:101778000103002B00F07D81BC4B5B6803F00C0378
:10178800042B0CD0B94B5B6803F00C03082B5CD11D
:10179800B64B5B6803F48033B3F5803F55D14FF403
:1017A8000033C7F8F031D7F8F03193FAA3F3C7F84C
:1017B800EC31D7F8EC31B3FA83F3DBB25B09DBB277
:1017C80043F00103DBB2012B02D1A84B1B6815E0E3
:1017D8004FF40033C7F8E831D7F8E83193FAA3F3A8
:1017E800C7F8E4314FF40033C7F8E031D7F8E031F7
:1017F80093FAA3F3C7F8DC319C4B5B6A4FF40032D1
:10180800C7F8D821D7F8D82192FAA2F2C7F8D4217C
:10181800D7F8D421B2FA82F2D2B242F02002D2B280
:1018280002F01F02012101FA02F21340002B00F01E
:101838001F8107F50073A3F5FE731B685B68002B17
:1018480040F01681012300F0AFBF07F50073A3F540
:10185800FE731B685B68B3F5803F06D1834B1B683A
:10186800824A43F48033136036E007F50073A3F52A
:10187800FE731B685B68002B0CD17C4B1B687B4A92
:1018880023F480331360794B1B68784A23F4802350
:10189800136021E007F50073A3F5FE731B685B680E
:1018A800B3F5A02F0CD1714B1B68704A43F4802309
:1018B80013606E4B1B686D4A43F4803313600BE072
:1018C8006A4B1B68694A23F480331360674B1B68B3
:1018D800664A23F480231360644BDB6A23F00F020B
:1018E80007F50073A3F5FE731B689B685F491343F4
:1018F800CB6207F50073A3F5FE731B685B68002BCA
:1019080059D0FFF70FF9C7F8F8010AE0FFF70AF90D
:101918000246D7F8F831D31A642B02D9032300F012
:1019280043BF4FF40033C7F8D031D7F8D03193FA1A
:10193800A3F3C7F8CC31D7F8CC31B3FA83F3DBB2D1
:101948005B09DBB243F00103DBB2012B02D1474B49
:101958001B6815E04FF40033C7F8C831D7F8C83111
:1019680093FAA3F3C7F8C4314FF40033C7F8C03172
:10197800D7F8C03193FAA3F3C7F8BC313B4B5B6A85
:101988004FF40032C7F8B821D7F8B82192FAA2F27A
:10199800C7F8B421D7F8B421B2FA82F2D2B242F031
:1019A8002002D2B202F01F02012101FA02F2134012
:1019B800002BABD05DE0FFF7B5F8C7F8F8010AE0F7
:1019C800FFF7B0F80246D7F8F831D31A642B02D9DA
:1019D800032300F0E9BE4FF40033C7F8B031D7F85D
:1019E800B03193FAA3F3C7F8AC31D7F8AC31B3FAF6
:1019F80083F3DBB25B09DBB243F00103DBB2012BFB
:101A080002D11A4B1B6815E04FF40033C7F8A83110
:101A1800D7F8A83193FAA3F3C7F8A4314FF40033E9
:101A2800C7F8A031D7F8A03193FAA3F3C7F89C31CF
:101A38000E4B5B6A4FF40032C7F89821D7F898210B
:101A480092FAA2F2C7F89421D7F89421B2FA82F256
:101A5800D2B242F02002D2B202F01F02012101FAF2
:101A680002F21340002BABD103E000BF001002408C
:101A780000BF07F50073A3F5FE731B681B6803F02E
:101A88000203002B00F07D81A64B5B6803F00C037A
:101A9800002B0BD0A34B5B6803F00C03082B72D10F
:101AA800A04B5B6803F48033002B6CD10223C7F88A
:101AB8009031D7F8903193FAA3F3C7F88C31D7F85F
:101AC8008C31B3FA83F3DBB25B09DBB243F0010379
:101AD800DBB2012B02D1934B1B6813E00223C7F83A
:101AE8008831D7F8883193FAA3F3C7F884310223F1
:101AF800C7F88031D7F8803193FAA3F3C7F87C315F
:101B0800884B5B6A0222C7F87821D7F8782192FAC5
:101B1800A2F2C7F87421D7F87421B2FA82F2D2B2CD
:101B280042F02002D2B202F01F02012101FA02F2B1
:101B38001340002B0AD007F50073A3F5FE731B684A
:101B48001B69012B02D0012300F02EBE754B1B68C8
:101B580023F0F80207F50073A3F5FE731B685B69B1
:101B6800F821C7F87011D7F8701191FAA1F1C7F8E8
:101B78006C11D7F86C11B1FA81F1C9B28B4069497F
:101B880013430B60FDE007F50073A3F5FE731B68B4
:101B98001B69002B00F088800123C7F86831D7F84B
:101BA800683193FAA3F3C7F86431D7F86431B3FA0C
:101BB80083F3DBB203F1845303F584139B001A46C5
:101BC80001231360FEF7AEFFC7F8F8010AE0FEF73D
:101BD800A9FF0246D7F8F831D31A022B02D90323FA
:101BE80000F0E2BD0223C7F86031D7F8603193FAFC
:101BF800A3F3C7F85C31D7F85C31B3FA83F3DBB2EF
:101C08005B09DBB243F00103DBB2012B02D1454B88
:101C18001B6813E00223C7F85831D7F8583193FAF4
:101C2800A3F3C7F854310223C7F85031D7F850311D
:101C380093FAA3F3C7F84C313A4B5B6A0222C7F810
:101C48004821D7F8482192FAA2F2C7F84421D7F8D8
:101C58004421B2FA82F2D2B242F02002D2B202F0A9
:101C68001F02012101FA02F21340002BAFD02D4BC5
:101C78001B6823F0F80207F50073A3F5FE731B68D1
:101C88005B69F821C7F84011D7F8401191FAA1F122
:101C9800C7F83C11D7F83C11B1FA81F1C9B28B40B1
:101CA800204913430B606CE00123C7F83831D7F89B
:101CB800383193FAA3F3C7F83431D7F83431B3FA8B
:101CC80083F3DBB203F1845303F584139B001A46B4
:101CD80000231360FEF726FFC7F8F8010AE0FEF7B5
:101CE80021FF0246D7F8F831D31A022B02D9032371
:101CF80000F05ABD0223C7F83031D7F8303193FAD3
:101D0800A3F3C7F82C31D7F82C31B3FA83F3DBB23D
:101D18005B09DBB243F00103DBB2012B04D1014BB9
:101D28001B6815E0001002400223C7F82831D7F8D5
:101D3800283193FAA3F3C7F824310223C7F82031D6
:101D4800D7F8203193FAA3F3C7F81C31C84B5B6A64
:101D58000222C7F81821D7F8182192FAA2F2C7F878
:101D68001421D7F81421B2FA82F2D2B242F020023A
:101D7800D2B202F01F02012101FA02F21340002B35
:101D8800ADD107F50073A3F5FE731B681B6803F05C
:101D98000803002B00F0108107F50073A3F5FE730C
:101DA8001B689B69002B79D00123C7F81031D7F83D
:101DB800103193FAA3F3C7F80C31D7F80C31B3FA02
:101DC80083F3DBB21A46AB4B13449B001A4601233C
:101DD8001360FEF7A7FEC7F8F8010AE0FEF7A2FEB7
:101DE8000246D7F8F831D31A022B02D9032300F0A0
:101DF800DBBC0223C7F80831D7F8083193FAA3F3FC
:101E0800C7F8043107F50073A3F5807302221A603E
:101E180007F50073A3F580731B6893FAA3F207F51F
:101E28000073A3F582731A6007F50073A3F5847332
:101E380002221A6007F50073A3F584731B6893FAEE
:101E4800A3F207F50073A3F586731A60884B5A6AE4
:101E580007F50073A3F588730221196007F500736D
:101E6800A3F588731B6893FAA3F107F50073A3F52C
:101E78008A73196007F50073A3F58A731B68B3FAB0
:101E880083F3DBB243F06003DBB203F01F030121ED
:101E980001FA03F31340002BA0D08DE007F500737F
:101EA800A3F58C7301221A6007F50073A3F58C73F0
:101EB8001B6893FAA3F207F50073A3F58E731A60F3
:101EC80007F50073A3F58E731B68B3FA83F3DBB2CF
:101ED8001A46684B13449B001A4600231360FEF70A
:101EE80021FEC7F8F8010AE0FEF71CFE0246D7F803
:101EF800F831D31A022B02D9032300F055BC07F599
:101F08000073A3F5907302221A6007F50073A3F516
:101F180090731B6893FAA3F207F50073A3F5927305
:101F28001A6007F50073A3F5947302221A6007F587
:101F38000073A3F594731B6893FAA3F207F5007373
:101F4800A3F596731A6007F50073A3F59873022238
:101F58001A6007F50073A3F598731B6893FAA3F248
:101F680007F50073A3F59A731A60414B5A6A07F58F
:101F78000073A3F59C730221196007F50073A3F59C
:101F88009C731B6893FAA3F107F50073A3F59E737E
:101F9800196007F50073A3F59E731B68B3FA83F302
:101FA800DBB243F06003DBB203F01F03012101FA47
:101FB80003F31340002B97D107F50073A3F5FE73C5
:101FC8001B681B6803F00403002B00F0A1810023A9
:101FD80087F8FF31264BDB6903F08053002B16D1BD
:101FE800234BDB69224A43F08053D361204BDB69E2
:101FF80003F0805207F50073A3F5FC731A6007F528
:102008000073A3F5FC731B68012387F8FF311A4B93
:102018001B6803F48073002B1AD1174B1B68164AF0
:1020280043F480731360FEF77DFDC7F8F80109E0FB
:10203800FEF778FD0246D7F8F831D31A642B01D998
:102048000323B1E30C4B1B6803F48073002BEFD020
:1020580007F50073A3F5FE731B68DB68012B0DD130
:10206800034B1B6A024A43F0010313623CE000BFC2
:1020780000100240208190100070004007F50073A6
:10208800A3F5FE731B68DB68002B0CD1C14B1B6AE0
:10209800C04A23F001031362BE4B1B6ABD4A23F0FA
:1020A8000403136220E007F50073A3F5FE731B68B1
:1020B800DB68052B0CD1B74B1B6AB64A43F0040307
:1020C8001362B44B1B6AB34A43F0010313620BE07B
:1020D800B04B1B6AAF4A23F001031362AD4B1B6A76
:1020E800AC4A23F00403136207F50073A3F5FE73EB
:1020F8001B68DB68002B00F08180FEF713FDC7F832
:10210800F8010BE0FEF70EFD0246D7F8F831D31AB6
:1021180041F28832934201D9032345E307F500735E
:10212800A3F5A07302221A6007F50073A3F5A07344
:102138001B6893FAA3F207F50073A3F5A2731A605C
:1021480007F50073A3F5A47302221A6007F500735C
:10215800A3F5A4731B6893FAA3F207F50073A3F51C
:10216800A6731A6007F50073A3F5A6731B68B3FA84
:1021780083F3DBB25B09DBB243F00203DBB2022B71
:1021880002D1844B1B6A13E007F50073A3F5A8730B
:1021980002221A6007F50073A3F5A8731B6893FA67
:1021A800A3F207F50073A3F5AA731A60794B5B6A6B
:1021B80007F50072A2F5AC720221116007F50072F2
:1021C800A2F5AC72126892FAA2F107F50072A2F5B4
:1021D800AE72116007F50072A2F5AE721268B2FA1B
:1021E80082F2D2B242F04002D2B202F01F020121C2
:1021F80001FA02F21340002B84D07FE0FEF792FC34
:10220800C7F8F8010BE0FEF78DFC0246D7F8F83165
:10221800D31A41F28832934201D90323C4E207F565
:102228000073A3F5B07302221A6007F50073A3F5D3
:10223800B0731B6893FAA3F207F50073A3F5B273A2
:102248001A6007F50073A3F5B47302221A6007F544
:102258000073A3F5B4731B6893FAA3F207F5007330
:10226800A3F5B6731A6007F50073A3F5B6731B6878
:10227800B3FA83F3DBB25B09DBB243F00203DBB2F0
:10228800022B02D1434B1B6A13E007F50073A3F539
:10229800B87302221A6007F50073A3F5B8731B68B8
:1022A80093FAA3F207F50073A3F5BA731A60394BD2
:1022B8005B6A07F50072A2F5BC720221116007F58E
:1022C8000072A2F5BC72126892FAA2F107F50072C8
:1022D800A2F5BE72116007F50072A2F5BE7212680F
:1022E800B2FA82F2D2B242F04002D2B202F01F0237
:1022F800012101FA02F21340002B84D197F8FF3133
:10230800012B05D1234BDB69224A23F08053D3618B
:1023180007F50073A3F5FE731B68DB69002B00F05B
:1023280042821C4B5B6803F00C03082B00F01382FD
:1023380007F50073A3F5FE731B68DB69022B40F0F9
:10234800628107F50073A3F5C0734FF080721A60BD
:1023580007F50073A3F5C0731B6893FAA3F207F59A
:102368000073A3F5C2731A6007F50073A3F5C2736F
:102378001B68B3FA83F3DBB203F1845303F58413C8
:102388009B001A4600231360FEF7CCFBC7F8F80140
:102398000CE000BF00100240FEF7C4FB0246D7F86D
:1023A800F831D31A022B01D90323FDE107F5007395
:1023B800A3F5C4734FF000721A6007F50073A3F514
:1023C800C4731B6893FAA3F207F50073A3F5C673E9
:1023D8001A6007F50073A3F5C6731B68B3FA83F395
:1023E800DBB25B09DBB243F00103DBB2012B02D1A4
:1023F800B04B1B6827E007F50073A3F5C8734FF0CF
:1024080000721A6007F50073A3F5C8731B6893FA86
:10241800A3F207F50073A3F5CA731A6007F50073F2
:10242800A3F5CC734FF000721A6007F50073A3F59B
:10243800CC731B6893FAA3F207F50073A3F5CE7368
:102448001A609C4B5B6A07F50072A2F5D0724FF0D8
:102458000071116007F50072A2F5D072126892FA45
:10246800A2F107F50072A2F5D272116007F50072A9
:10247800A2F5D2721268B2FA82F2D2B242F0200207
:10248800D2B202F01F02012101FA02F21340002B1E
:1024980082D1884B5B6823F4741207F50073A3F5A7
:1024A800FE731B68596A07F50073A3F5FE731B6872
:1024B8001B6A0B437F4913434B6007F50073A3F571
:1024C800D4734FF080721A6007F50073A3F5D473C4
:1024D8001B6893FAA3F207F50073A3F5D6731A6085
:1024E80007F50073A3F5D6731B68B3FA83F3DBB261
:1024F80003F1845303F584139B001A4601231360E8
:10250800FEF710FBC7F8F80109E0FEF70BFB0246DF
:10251800D7F8F831D31A022B01D9032344E107F580
:102528000073A3F5D8734FF000721A6007F50073B3
:10253800A3F5D8731B6893FAA3F207F50073A3F504
:10254800DA731A6007F50073A3F5DA731B68B3FA38
:1025580083F3DBB25B09DBB243F00103DBB2012B8F
:1025680002D1544B1B6827E007F50073A3F5DC7311
:102578004FF000721A6007F50073A3F5DC731B684F
:1025880093FAA3F207F50073A3F5DE731A6007F553
:102598000073A3F5E0734FF000721A6007F500733B
:1025A800A3F5E0731B6893FAA3F207F50073A3F58C
:1025B800E2731A603F4B5B6A07F50072A2F5E4729A
:1025C8004FF00071116007F50072A2F5E47212680D
:1025D80092FAA2F107F50072A2F5E672116007F50A
:1025E8000072A2F5E6721268B2FA82F2D2B242F032
:1025F8002002D2B202F01F02012101FA02F21340B6
:10260800002B82D0CFE007F50073A3F5E8734FF0F5
:1026180080721A6007F50073A3F5E8731B6893FAD4
:10262800A3F207F50073A3F5EA731A6007F50073C0
:10263800A3F5EA731B68B3FA83F3DBB203F184539F
:1026480003F584139B001A4600231360FEF76AFA09
:10265800C7F8F80109E0FEF765FA0246D7F8F8313D
:10266800D31A022B01D903239EE007F50073A3F5C3
:10267800EC734FF000721A6007F50073A3F5EC7362
:102688001B6893FAA3F207F50073A3F5EE731A60BB
:1026980007F50073A3F5EE731B68B3FA83F3DBB297
:1026A8005B09DBB243F00103DBB2012B04D1014B20
:1026B8001B6829E00010024007F50073A3F5F073CA
:1026C8004FF000721A6007F50073A3F5F0731B68EA
:1026D80093FAA3F207F50073A3F5F2731A6007F5EE
:1026E8000073A3F5F4734FF000721A6007F50073D6
:1026F800A3F5F4731B6893FAA3F207F50073A3F527
:10270800F6731A602B4B5B6A07F50072A2F5F87234
:102718004FF00071116007F50072A2F5F8721268A7
:1027280092FAA2F107F50072A2F5FA72116007F5A4
:102738000072A2F5FA721268B2FA82F2D2B242F0CC
:102748002002D2B202F01F02012101FA02F2134064
:10275800002B80D127E007F50073A3F5FE731B68F3
:10276800DB69012B01D101231EE0124B5B68C7F81E
:10277800F431D7F8F43103F4803207F50073A3F588
:10278800FE731B681B6A9A420BD1D7F8F43103F425
:10279800701207F50073A3F5FE731B685B6A9A4213
:1027A80001D0012300E00023184607F50077BD4655
:1027B80080BD00BF0010024080B59EB000AF7860B9
:1027C800396000237B677B68002B01D1012362E11C
:1027D800904B1B6803F007033A689A4210D98D4B57
:1027E8001B6823F007028B493B6813430B60894B36
:1027F8001B6803F007033A689A4201D001234AE1B3
:102808007B681B6803F00203002B08D0824B5B68CF
:1028180023F0F0027B689B687F4913434B607B6819
:102828001B6803F00103002B00F0DC807B685B6809
:10283800012B3CD14FF400333B673B6F93FAA3F372
:10284800FB66FB6EB3FA83F3DBB25B09DBB243F0E2
:102858000103DBB2012B02D16F4B1B680FE04FF471
:102868000033BB66BB6E93FAA3F37B664FF4003369
:102878003B663B6E93FAA3F3FB65674B5B6A4FF4C9
:102888000032BA65BA6D92FAA2F27A657A6DB2FA36
:1028980082F2D2B242F02002D2B202F01F0201212B
:1028A80001FA02F21340002B7BD10123F3E07B688D
:1028B8005B68022B3CD14FF000733B653B6D93FA8C
:1028C800A3F3FB64FB6CB3FA83F3DBB25B09DBB203
:1028D80043F00103DBB2012B02D14F4B1B680FE021
:1028E8004FF00073BB64BB6C93FAA3F37B644FF0A7
:1028F80000733B643B6C93FAA3F3FB63464B5B6A40
:102908004FF00072BA63BA6B92FAA2F27A637A6BEA
:10291800B2FA82F2D2B242F02002D2B202F01F0220
:10292800012101FA02F21340002B3AD10123B2E04F
:1029380002233B633B6B93FAA3F3FB62FB6AB3FA94
:1029480083F3DBB25B09DBB243F00103DBB2012B9B
:1029580002D1314B1B680DE00223BB62BB6A93FABC
:10296800A3F37B6202233B623B6A93FAA3F3FB6106
:10297800294B5B6A0222BA61BA6992FAA2F27A61B9
:102988007A69B2FA82F2D2B242F02002D2B202F0EE
:102998001F02012101FA02F21340002B01D1012389
:1029A80079E01D4B5B6823F003027B685B681A497A
:1029B80013434B60FEF7B6F878670AE0FEF7B2F803
:1029C80002467B6FD31A41F28832934201D903231E
:1029D80061E0114B5B6803F00C027B685B689B004D
:1029E8009A42EBD10B4B1B6803F007033A689A42F3
:1029F80014D2084B1B6823F0070206493B681343AF
:102A08000B60044B1B6803F007033A689A4205D031
:102A1800012340E000200240001002407B681B6850
:102A280003F00403002B08D01D4B5B6823F4E0621D
:102A38007B68DB681A4913434B607B681B6803F0AB
:102A48000803002B09D0164B5B6823F460527B689F
:102A58001B69DB00124913434B6000F029F801465B
:102A68000F4B5B6803F0F003F0223A613A6992FA7F
:102A7800A2F2FA60FA68B2FA82F2D2B2D340094AF4
:102A8800D35C21FA03F3084A1360084B1B68184605
:102A9800FEF706F8002318467837BD4680BD00BF0C
:102AA800001002400440000800000020040000203C
:102AB80080B48BB000AF0023FB610023BB6100230F
:102AC8007B6200237B6100233B62284B5B68FB61D0
:102AD800FB6903F00C03042B02D0082B03D03CE065
:102AE800234B3B623CE0FB6903F470134FF4701214
:102AF800BA60BA6892FAA2F27A607A68B2FA82F296
:102B0800D2B2D3401B4AD35C7B61184BDB6A03F01B
:102B18000F030F223A613A6992FAA2F2FA60FA6850
:102B2800B2FA82F2D2B2D340134AD35CBB61FB69DA
:102B380003F48033002B08D00D4ABB69B2FBF3F2D3
:102B48007B6902FB03F37B6204E07B690B4A02FBAF
:102B580003F37B627B6A3B6202E0054B3B6200BF8A
:102B68003B6A18462C37BD4680BC704700100240AF
:102B780000127A001C4000082C40000800093D00A3
:102B880080B400AF024B1B681846BD4680BC704736
:102B98000000002080B582B000AFFFF7F1FF0146CA
:102BA8000B4B5B6803F4E0634FF4E0627A607A6889
:102BB80092FAA2F23A603A68B2FA82F2D2B2D340FA
:102BC800044AD35C21FA03F318460837BD4680BD92
:102BD800001002401440000880B582B000AFFFF733
:102BE800CFFF01460B4B5B6803F460534FF4605210
:102BF8007A607A6892FAA2F23A603A68B2FA82F295
:102C0800D2B2D340044AD35C21FA03F318460837FA
:102C1800BD4680BD001002401440000880B592B047
:102C280000AF786000233B640023FB63002387F830
:102C380047307B681B6803F48033002B00F0D48096
:102C48004E4BDB6903F08053002B0ED14B4BDB69F5
:102C58004A4A43F08053D361484BDB6903F0805301
:102C6800BB60BB68012387F84730454B1B6803F4FA
:102C78008073002B18D1424B1B68414A43F4807380
:102C88001360FDF74FFF386408E0FDF74BFF02467D
:102C98003B6CD31A642B01D903234BE1384B1B68D7
:102CA80003F48073002BF0D0344B1B6A03F4407399
:102CB800FB63FB6B002B00F084807B685B6803F48C
:102CC8004073FA6B9A427CD02C4B1B6A23F44073F6
:102CD800FB634FF480333B633B6B93FAA3F3FB62D4
:102CE800FB6AB3FA83F3DBB21A46264B13449B0004
:102CF8001A46012313604FF48033BB63BB6B93FA0E
:102D0800A3F37B637B6BB3FA83F3DBB21A461D4BE9
:102D180013449B001A4600231360184AFB6B136286
:102D2800FB6B03F00103002B4BD0FDF7FBFE38646F
:102D38000AE0FDF7F7FE02463B6CD31A41F28832EF
:102D4800934201D90323F5E00223BB62BB6A93FADD
:102D5800A3F37B6202233B623B6A93FAA3F3FB6112
:102D6800FB69B3FA83F3DBB25B09DBB243F002031E
:102D7800DBB2022B08D1014B1B6A0DE000100240A8
:102D880000700040008190100223BB61BB6993FA78
:102D9800A3F37B61694B5B6A02223A613A6992FA52
:102DA800A2F2FA60FA68B2FA82F2D2B242F04002B3
:102DB800D2B202F01F02012101FA02F21340002BE5
:102DC800B7D05E4B1B6A23F440727B685B685B4933
:102DD80013430B6297F84730012B05D1574BDB693A
:102DE800564A23F08053D3617B681B6803F00103C4
:102DF800002B08D0514B1B6B23F003027B689B68A8
:102E08004E4913430B637B681B6803F02003002BB8
:102E180008D04A4B1B6B23F010027B68DB684749DC
:102E280013430B637B681B6803F40033002B08D043
:102E3800424B5B6823F480027B681B6B3F4913435A
:102E48004B607B681B6803F04003002B08D03B4BAA
:102E58001B6B23F020027B681B69384913430B6303
:102E68007B681B6803F40043002B08D0334B1B6BB3
:102E780023F040027B685B69304913430B637B682E
:102E88001B6803F40073002B08D02C4B5B6823F4F9
:102E980000027B68DB69294913434B607B681B6828
:102EA80003F08003002B08D0244BDB6A23F4F8726C
:102EB8007B689B6921491343CB627B681B6803F4D9
:102EC8008053002B08D01D4B1B6B23F480727B684A
:102ED8001B6A1A4913430B637B681B6803F480233E
:102EE800002B08D0154B1B6B23F480627B685B6A50
:102EF800124913430B637B681B6803F40023002B00
:102F080008D00E4B1B6B23F400627B689B6A0B494D
:102F180013430B637B681B6803F48013002B08D0F2
:102F2800064B1B6B23F400527B68DB6A034913438F
:102F38000B63002318464837BD4680BD0010024089
:102F480080B582B000AF78607B68002B01D1012387
:102F580040E07B689B6F002B06D17B68002283F8DA
:102F680074207868FDF774FC7B6824229A677B6874
:102F78001B681A687B681B6822F001021A6078686F
:102F880000F024FB0346012B01D1012322E07B68DA
:102F98005B6A002B02D0786800F04EFC7B681B68E7
:102FA8005A687B681B6822F490425A607B681B68E9
:102FB8009A687B681B6822F02A029A607B681B6803
:102FC8001A687B681B6842F001021A60786800F092
:102FD800D4FC034618460837BD4680BD80B58AB084
:102FE80002AFF860B9603B601346FB80FB689B6FDB
:102FF800202B40F08280BB68002B02D0FB88002B7E
:1030080001D101237AE0FB6893F87430012B01D1D8
:10301800022373E0FB68012283F87420FB68002216
:10302800C3F88020FB6821229A67FDF77BFD786151
:10303800FB68FA88A3F85020FB68FA88A3F85220A6
:10304800FB689B68B3F5805F08D1FB681B69002BA0
:1030580004D10023FB61BB68BB6103E0BB68FB6173
:103068000023BB61FB68002283F874202DE03B68D5
:1030780000937B6900228021F86800F0C7FC0346B2
:10308800002B01D0032339E0FB69002B0BD1BB696E
:103098001A88FB681B68C2F3080292B21A85BB69DA
:1030A8000233BB6108E0FB691A78FB681B6892B2BF
:1030B8001A85FB690133FB61FB68B3F852309BB298
:1030C800013B9AB2FB68A3F85220FB68B3F8523070
:1030D8009BB2002BCBD13B6800937B690022402137
:1030E800F86800F093FC0346002B01D0032305E0A9
:1030F800FB6820229A67002300E002231846203745
:10310800BD4680BD80B584B000AFF860B960134695
:10311800FB80FB68DB6F202B2CD1BB68002B02D017
:10312800FB88002B01D1012325E0FB6893F874305C
:10313800012B01D102231EE0FB68012283F87420D1
:10314800FB6800221A66FB681B685B6803F40003CF
:10315800002B07D0FB681B681A68FB681B6842F0E5
:1031680080621A60FB881A46B968F86800F0CAFCE1
:10317800034600E0022318461037BD4680BD000014
:1031880080B588B000AF78607B681B68DB69FB613D
:103198007B681B681B68BB617B681B689B687B61DD
:1031A800FA6940F60F0313403B613B69002B13D1CA
:1031B800FB6903F02003002B0ED0BB6903F020034A
:1031C800002B09D07B685B6E002B00F0CC817B68FC
:1031D8005B6E78689847C6E13B69002B00F0E88091
:1031E8007B6903F00103002B05D1BA696E4B1340CC
:1031F800002B00F0DD80FB6903F00103002B10D0E9
:10320800BB6903F48073002B0BD07B681B68012219
:103218001A627B68D3F8803043F001027B68C3F8F8
:103228008020FB6903F00203002B10D07B6903F0B8
:103238000103002B0BD07B681B6802221A627B6893
:10324800D3F8803043F004027B68C3F88020FB6920
:1032580003F00403002B10D07B6903F00103002B5B
:103268000BD07B681B6804221A627B68D3F8803015
:1032780043F002027B68C3F88020FB6903F008036F
:10328800002B15D0BB6903F02003002B04D17B6908
:1032980003F00103002B0BD07B681B6808221A621D
:1032A8007B68D3F8803043F008027B68C3F880203D
:1032B800FB6903F40063002B11D0BB6903F0806342
:1032C800002B0CD07B681B684FF400621A627B6885
:1032D800D3F8803043F020027B68C3F880207B68F5
:1032E800D3F88030002B00F04081FB6903F0200305
:1032F800002B0CD0BB6903F02003002B07D07B68A0
:103308005B6E002B03D07B685B6E786898477B68A0
:10331800D3F88030FB607B681B689B6803F0400330
:10332800402B04D0FB6803F02803002B31D07868C9
:1033380000F068FC7B681B689B6803F04003402B27
:1033480023D17B681B689A687B681B6822F040025F
:103358009A607B681B6F002B13D07B681B6F134A26
:103368005A637B681B6F1846FDF7F5FD0346002B73
:1033780017D07B681B6F5B6B7A68126F1046984793
:103388000FE0786800F00EF90BE0786800F00AF9B1
:1033980007E0786800F006F97B680022C3F880200F
:1033A800E3E000BFE1E000BF20010004AF3D0008FA
:1033B8007B681B6E012B40F0A280FB6903F01003B1
:1033C800002B00F09C80BB6903F01003002B00F079
:1033D80096807B681B6810221A627B681B689B6852
:1033E80003F04003402B51D17B681B6F1B685B685F
:1033F8003B813B89002B00F0BA807B68B3F85830DA
:103408003A899A4280F0B3807B683A89A3F85A20B7
:103418007B681B6F9B69202B2AD07B681B681A6806
:103428007B681B6822F480721A607B681B689A6844
:103438007B681B6822F001029A607B681B689A68A7
:103448007B681B6822F040029A607B682022DA675A
:103458007B6800221A667B681B681A687B681B6891
:1034680022F010021A607B681B6F1846FDF73BFDBF
:103478007B68B3F858207B68B3F85A309BB2D31AEC
:103488009BB21946786800F096F870E07B68B3F84C
:1034980058207B68B3F85A309BB2D31A7B817B687B
:1034A800B3F85A309BB2002B63D07B89002B60D0D5
:1034B8007B681B681A687B681B6822F490721A6024
:1034C8007B681B689A687B681B6822F001029A6017
:1034D8007B682022DA677B6800221A667B680022F4
:1034E8005A667B681B681A687B681B6822F01002A2
:1034F8001A607B891946786800F05DF839E0FB6945
:1035080003F48013002B0DD07B6903F48003002B98
:1035180008D07B681B684FF480121A62786800F044
:1035280071FC29E0FB6903F08003002B0DD0BB6917
:1035380003F08003002B08D07B689B6E002B1AD009
:103548007B689B6E7868984715E0FB6903F0400339
:10355800002B11D0BB6903F04003002B0CD0786816
:1035680000F037FC08E000BF06E000BF04E000BF41
:1035780002E000BF00E000BF2037BD4680BD00BFAD
:1035880080B483B000AF786000BF0C37BD4680BC04
:10359800704780B483B000AF786000BF0C37BD4679
:1035A80080BC704780B483B000AF786000BF0C3730
:1035B800BD4680BC704780B483B000AF78600B46CE
:1035C8007B8000BF0C37BD4680BC704780B588B093
:1035D80000AF78600023BB777B689A687B681B69BB
:1035E8001A437B685B691A437B68DB6913437B6119
:1035F8007B681B681A688A4B13407A681268796975
:103608000B4313607B681B685B6823F440517B683D
:10361800DA687B681B680A435A607B689B697B6130
:103628007B681B6A7A6913437B617B681B689B68AC
:1036380023F430617B681B687A690A439A607B6867
:103648001B68784A934220D1774B1B6B03F0030326
:10365800032B17D801A252F823F000BF75360008D3
:1036680081360008873600087B3600080023FB7780
:103678001DE00223FB771AE00423FB7717E00823F9
:10368800FB7714E01023FB7711E07B681B68674A1F
:10369800934202D10023FB7709E07B681B68644AE8
:1036A800934202D10023FB7701E01023FB777B686C
:1036B800DB69B3F5004F5BD1FB7F082B27D801A24C
:1036C80052F823F0F1360008F936000801370008EF
:1036D800173700080737000817370008173700089A
:1036E800173700080F370008FFF754FAB86113E0DE
:1036F800FFF772FAB8610FE04E4BBB610CE0FFF7C1
:10370800D7F9B86108E04FF40043BB6104E0002337
:10371800BB610123BB7700BFBB69002B74D0BB69B9
:103728005A007B685B685B081A447B685B68B2FB7D
:10373800F3F39BB23B613B690F2B16D93B69B3F599
:10374800803F12D23B699BB223F00F03FB813B6998
:103758005B089BB203F007039AB2FB891343FB8112
:103768007B681B68FA89DA604EE00123BB774BE07F
:10377800FB7F082B27D801A252F823F0A9370008AD
:10378800B1370008B9370008CF370008BF3700083D
:10379800CF370008CF370008CF370008C7370008F1
:1037A800FFF7F8F9B86113E0FFF716FAB8610FE010
:1037B800204BBB610CE0FFF77BF9B86108E04FF4E0
:1037C8000043BB6104E00023BB610123BB7700BF5A
:1037D800BB69002B18D07B685B685A08BB691A4420
:1037E8007B685B68B2FBF3F39BB23B613B690F2BD1
:1037F80008D93B69B3F5803F04D27B681B683A69F6
:10380800DA6001E00123BB777B6800225A667B6897
:1038180000229A66BB7F18462037BD4680BD00BF90
:10382800F369FFEF003801400010024000440040F7
:103838000048004000127A0080B483B000AF78607E
:103848007B685B6A03F00103002B0AD07B681B6866
:103858005B6823F400317B689A6A7B681B680A43BB
:103868005A607B685B6A03F00203002B0AD07B680E
:103878001B685B6823F480317B68DA6A7B681B68A5
:103888000A435A607B685B6A03F00403002B0AD082
:103898007B681B685B6823F480217B681A6B7B68F4
:1038A8001B680A435A607B685B6A03F00803002BB5
:1038B8000AD07B681B685B6823F400417B685A6BFD
:1038C8007B681B680A435A607B685B6A03F01003D5
:1038D800002B0AD07B681B689B6823F480517B68A7
:1038E8009A6B7B681B680A439A607B685B6A03F083
:1038F8002003002B0AD07B681B689B6823F40051C7
:103908007B68DA6B7B681B680A439A607B685B6A32
:1039180003F04003002B1AD07B681B685B6823F414
:1039280080117B681A6C7B681B680A435A607B6845
:103938001B6CB3F5801F0AD17B681B685B6823F496
:10394800C0017B685A6C7B681B680A435A607B68B5
:103958005B6A03F08003002B0AD07B681B685B68F6
:1039680023F400217B689A6C7B681B680A435A60C1
:1039780000BF0C37BD4680BC704780B586B002AF2B
:1039880078607B680022C3F88020FDF7CBF8F860E8
:103998007B681B681B6803F00803082B0ED16FF0C7
:1039A8007E430093FB6800224FF40011786800F012
:1039B8002DF80346002B01D0032323E07B681B6806
:1039C8001B6803F00403042B0ED16FF07E430093B1
:1039D800FB6800224FF48001786800F017F803466E
:1039E800002B01D003230DE07B6820229A677B68B7
:1039F8002022DA677B6800221A667B68002283F837
:103A08007420002318461037BD4680BD80B584B0A9
:103A180000AFF860B9603B601346FB715EE0BB69BC
:103A2800B3F1FF3F5AD0FDF77DF802463B68D31A41
:103A3800BA699A4202D3BB69002B1BD1FB681B6889
:103A48001A68FB681B6822F4D0721A60FB681B684E
:103A58009A68FB681B6822F001029A60FB682022C2
:103A68009A67FB682022DA67FB68002283F87420D3
:103A7800032343E0FB681B681B6803F00403002B67
:103A88002CD0FB681B68DB6903F40063B3F5006F97
:103A980024D1FB681B684FF400621A62FB681B683C
:103AA8001A68FB681B6822F4D0721A60FB681B68EE
:103AB8009A68FB681B6822F001029A60FB68202262
:103AC8009A67FB682022DA67FB682022C3F8802007
:103AD800FB68002283F8742003230FE0FB681B684F
:103AE800DA69BB681340BA689A420CBF0123002305
:103AF800DBB21A46FB799A4291D000231846103758
:103B0800BD4680BD80B584B000AFF860B96013468B
:103B1800FB80FB68BA685A65FB68FA88A3F85820E6
:103B2800FB680022C3F88020FB682222DA67FB6862
:103B38001B6F002B2BD0FB681B6F254A9A62FB6812
:103B48001B6F244ADA62FB681B6F234A1A63FB68FF
:103B58001B6F00225A63FB68186FFB681B682433CD
:103B68001946FB685B6D1A46FB88FDF75DF903464D
:103B7800002B0CD0FB681022C3F88020FB680022C1
:103B880083F87420FB6820229A6701231CE0FB68F5
:103B9800002283F87420FB681B681A68FB681B689E
:103BA80042F480721A60FB681B689A68FB681B689D
:103BB80042F001029A60FB681B689A68FB681B6800
:103BC80042F040029A60002318461037BD4680BD77
:103BD800693C0008FB3C0008333D000880B483B012
:103BE80000AF78607B681B681A687B681B6822F0E6
:103BF800C0021A607B6820229A6700BF0C37BD4656
:103C080080BC704780B483B000AF78607B681B6865
:103C18001A687B681B6822F490721A607B681B68BC
:103C28009A687B681B6822F001029A607B681B6EA9
:103C3800012B07D17B681B681A687B681B6822F018
:103C480010021A607B682022DA677B6800221A66F5
:103C58007B6800225A6600BF0C37BD4680BC70479F
:103C680080B584B000AF78607B685B6AFB607B6876
:103C78009B69202B2AD0FB680022A3F85A20FB68F6
:103C88001B681A68FB681B6822F480721A60FB685C
:103C98001B689A68FB681B6822F001029A60FB683F
:103CA8001B689A68FB681B6822F040029A60FB68F0
:103CB8002022DA67FB681B6E012B07D1FB681B68A3
:103CC8001A68FB681B6822F010021A60FB681B6EFA
:103CD800012B07D1FB68B3F858301946F868FFF78D
:103CE8006AFC02E0F868FCF7ADFC00BF1037BD467F
:103CF80080BD80B584B000AF78607B685B6AFB608C
:103D0800FB681B6E012B09D1FB68B3F858305B08C0
:103D18009BB21946F868FFF74EFC02E0F868FFF717
:103D280038FC00BF1037BD4680BD80B586B000AFF7
:103D380078607B685B6A7B617B699B6F3B617B69B1
:103D4800DB6FFB607B691B689B6803F08003802B3B
:103D580009D13B69212B06D17B690022A3F85220A7
:103D68007869FFF73BFF7B691B689B6803F040039A
:103D7800402B09D1FB68222B06D17B690022A3F8CE
:103D88005A207869FFF73EFF7B69D3F8803043F00B
:103D980010027B69C3F880207869FFF703FC00BF35
:103DA8001837BD4680BD80B584B000AF78607B68A9
:103DB8005B6AFB60FB680022A3F85A20FB680022BC
:103DC800A3F85220F868FFF7EDFB00BF1037BD4697
:103DD80080BD80B582B000AF78607B681B681A68C8
:103DE8007B681B6822F040021A607B6820229A6771
:103DF8007B6800229A667868FFF7C2FB00BF083725
:103E0800BD4680BD80B483B000AF786000BF0C377A
:103E1800BD4680BC7047000070B50D4E0D4D761B39
:103E2800B61006D0002455F8043B01349847A64242
:103E3800F9D1094E094D761B00F0D4F8B61006D01A
:103E4800002455F8043B01349847A642F9D170BDC7
:103E58004040000840400008484000084040000832
:103E6800830730B548D0541E002A3FD0CAB2034653
:103E780001E0013C3AD303F8012B9D07F9D1032C4B
:103E88002DD9CDB245EA05250F2C45EA054536D989
:103E9800A4F1100222F00F0C03F1200EE6444FEAC1
:103EA800121C03F1100242E9045542E9025510328E
:103EB8007245F8D10CF1010214F00C0F03EB021259
:103EC80004F00F0C13D0ACF1040323F00303043304
:103ED800134442F8045B9342FBD10CF003042CB169
:103EE800CAB21C4403F8012B9C42FBD130BD644686
:103EF8001346002CF4D1F9E703461446BFE71A46E7
:103F0800A446E0E7024B13B1024800F005B8704739
:103F1800000000002D3F0008002301461A461846FD
:103F280000F01AB838B5084B084D5B1B9C1007D039
:103F3800043B1D44013C55F804399847002CF9D13D
:103F4800BDE8384000F054B84C400008484000082C
:103F5800704700BF704700BF2DE9F047DFF87CA02D
:103F68000646DAF8000098460F469146FFF7F0FF3C
:103F78001B4B1B68D3F8484124B365681F2D26DC0A
:103F88005EB96B1C0235DAF80000636044F82570EE
:103F9800FFF7E0FF0020BDE8F08704EB850101236F
:103FA800C1F88890D4F88821AB401A43022EC4F88F
:103FB8008821C1F80881E4D1D4F88C211343C4F8CE
:103FC8008C31DEE703F5A674C3F84841D5E7DAF883
:103FD8000000FFF7BFFF4FF0FF30DCE73804002098
:103FE8003C400008F8B500BFF8BC08BC9E467047C6
:0C3FF800F8B500BFF8BC08BC9E4670473E
:104004000000000000000000010203040607080984
:104014000000000001020304020304050607080966
:104024000A0B0C0D0E0F10100102030405060708FD
:0C403400090A0B0C0D0E0F1010000020EC
:084040000D3F0008AD0100086E
:0440480089010008E2
:10404C0000127A00100000000100000000000000C7
:10405C0000000000FC02002064030020CC030020C0
:10406C000000000000000000000000000000000044
:10407C000000000000000000000000000000000034
:10408C000000000000000000000000000000000024
:10409C000000000000000000000000000000000014
:1040AC000000000000000000000000000000000004
:1040BC0000000000000000000000000000000000F4
:1040CC0000000000000000000000000000000000E4
:1040DC0000000000000000000000000000000000D4
:1040EC0000000000000000000000000000000000C4
:1040FC0000000000000000000100000000000000B3
:10410C000E33CDAB34126DE6ECDE05000B00000077
:10411C000000000000000000000000000000000093
:10412C000000000000000000000000000000000083
:10413C000000000000000000000000000000000073
:10414C000000000000000000000000000000000063
:0C447C00000000000000000020070020ED
:0400000508000A29BC
:00000001FF
