:020000040800F2
:1000000000400020C1060008850600088706000899
:10001000890600088B0600088D0600080000000015
:100020000000000000000000000000008F06000833
:1000300091060008000000009306000895060008DD
:100040001107000811070008110700081107000830
:100050001107000811070008110700081107000820
:100060001107000811070008110700081107000810
:100070001107000811070008110700089D06000875
:1000800011070008110700081107000811070008F0
:1000900011070008110700081107000811070008E0
:1000A00011070008110700081107000811070008D0
:1000B0001107000800000000000000001107000800
:1000C00011070008110700081107000800000000D0
:1000D00011070008AD060008110700081107000805
:1000E00011070008110700081107000800000000B0
:1000F0000000000000000000000000000000000000
:1001000000000000000000000000000011070008CF
:1001100000000000000000001107000800000000BF
:1001200000000000000000000000000000000000CF
:1001300000000000000000000000000000000000BF
:10014000110700081107000800000000000000006F
:10015000000000000000000000000000000000009F
:10016000110700081107000811070008110700080F
:10017000110700080000000000000000000000005F
:08018000000000001107000857
:1001880010B5054C237833B9044B13B10448AFF3C9
:1001980000800123237010BD3C04002000000000F3
:1001A8000C27000808B5034B1BB103490348AFF3FC
:1001B800008008BD00000000400400200C27000853
:1001C80070B58AB00024059406940794089409949D
:1001D800204B5A6942F400225A615A6902F40022FB
:1001E8000192019A5A6942F480025A615A6902F4EA
:1001F80080020292029A5A6942F400325A615A699C
:1002080002F400320392039A5A6942F480225A6136
:100218005B6903F480230493049B0F4D22464FF43B
:100228000051284600F0E6FC4FF4005605960B4BAB
:100238000693079405A90A4800F00EFC05960123C9
:1002480006930794089405A9284600F005FC0AB00F
:1002580070BD00BF001002400004004800002110DB
:100268000008004800B583B00A4B5A6942F0010201
:100278005A615B6903F001030193019B0022114657
:100288000F2000F0B3FA0F2000F0E8FA03B05DF891
:1002980004FB00BF0010024072B6FEE708B50B4829
:1002A8000B4B03604FF41653436000238360C36015
:1002B80003610C2242618361C3610362436202F0FD
:1002C80008F900B908BDFFF7E7FF00BFD005002017
:1002D8000044004008B50B480B4B03604FF416531D
:1002E800436000238360C36003610C224261836121
:1002F800C3610362436202F0ECF800B908BDFFF77E
:10030800CBFF00BF4C0500200038014008B511485C
:10031800114B036040F20B234360002383600122EA
:10032800C260036143618361C361036200F0A8FD99
:1003380050B90021074800F07DFF38B90021054871
:1003480000F0A6FF20B908BDFFF7A6FFFFF7A4FF3E
:10035800FFF7A2FF000500200054004000B59DB043
:100368002822002112A802F00BF900210D910E910C
:100378000F91109111913422684602F001F902237D
:100388001293012216921022179219934FF46013B8
:100398001B9312A800F0A8FFC8B90F230D930221E0
:1003A8000E9100230F934FF48062109211930DA8C1
:1003B80001F0ECFA68B92123009300230293039318
:1003C800684601F0E9FB30B91DB05DF804FBFFF7A2
:1003D80063FFFFF761FFFFF75FFF000080B582B0A2
:1003E80000F0BAF9FFF7BAFFFFF7EAFEFFF73AFFA6
:1003F800FFF754FFFFF76EFFFFF788FF214A6B23D3
:100408001370002313704FF0FF33009302231E492B
:1004180009781E4800F092FD1D4B187060B31D4A04
:100428001D4B07CA03C323F8022B120C1A700A23A8
:1004380006221949194801F0A8FF124A3B231370F4
:10044800114F124E0A24009401233978304600F0E7
:1004580075FD134D009406232A463978304600F07E
:100468002BFE4FF47A7000F09BF9234606222946AA
:100478000A4801F08AFFE0E70A4A074B07CA03C3A4
:100488001A80D4E75C060020000000200005002048
:100498005D0600202427000858040020D00500200D
:1004A800540600203027000800B583B00C4B9A6929
:1004B80042F001029A619A6902F001020092009AE0
:1004C800DA6942F08052DA61DB6903F08053019304
:1004D800019B072000F078F903B05DF804FB00BF2A
:1004E800001002402DE9F04188B0002303930493E3
:1004F80005930693079302681F4B9A4202D008B0EF
:10050800BDE8F0811D4C636943F40033636163699E
:1005180003F400330093009B636943F48023636111
:10052800636903F480230193019B4FF40043039311
:100538004FF01208CDF8108001270597032606967C
:100548000425079503A94FF0904000F085FA802311
:100558000393CDF8108005970696079503A90848D8
:1005680000F07AFAE36943F40013E361E36903F402
:1005780000130293029BC2E700540040001002409F
:100588000004004810B58AB000230593069307932A
:10059800089309930368334A934204D0324A93423A
:1005A80040D00AB010BD0446304B9A6942F48042EC
:1005B8009A619A6902F480420192019A5A6942F456
:1005C80000225A615B6903F400230293029B3023E3
:1005D800059302230693032308930723099305A988
:1005E800234800F039FA2348234B03600023436073
:1005F80083608022C2600361436120228261C361FB
:1006080000F060F958B91B4B23675C620022114661
:10061800252000F0EBF8252000F020F9C1E7FFF7CE
:100628003BFEF0E7114BDA6942F40032DA61DA692D
:1006380002F400320392039A5A6942F400325A6172
:100648005B6903F400330493049B0C230593022392
:1006580006930723099305A94FF0904000F0FCF991
:100668009FE700BF003801400044004000100240EE
:1006780000080048BC04002058000240FEE7FEE7DE
:10068800FEE7FEE7FEE770477047704708B500F0E1
:1006980075F808BD08B5024800F083F908BD00BF29
:1006A800BC04002008B5024801F0C4FB08BD00BF27
:1006B8004C05002070470000DFF834D00D480E4983
:1006C8000E4A002302E0D458C4500433C4188C42A4
:1006D800F9D30B4A0B4C002301E013600432A24209
:1006E800FBD3FFF7E7FF01F027FFFFF777FEFEE7F1
:1006F80000400020000000203C040020842700085F
:100708003C04002068060020FEE7000010B50446FF
:100718000E4B18784FF47A73B3FBF0F30C4A106859
:10072800B0FBF3F000F0A8F868B90F2C01D901204C
:100738000AE0002221464FF0FF3000F057F8054B41
:100748001C60002000E0012010BD00BF0800002050
:10075800040000200C00002008B5074A136843F085
:1007680010031360032000F02FF80020FFF7CEFFDE
:10077800FFF79AFE002008BD00200240034A1168D6
:10078800034B1B780B441360704700BF60060020C2
:1007980008000020014B1868704700BF6006002061
:1007A80038B50446FFF7F6FF0546B4F1FF3F02D01F
:1007B800044B1B781C44FFF7EDFF401BA042FAD303
:1007C80038BD00BF08000020074AD36823F4E0635F
:1007D8001B041B0C000200F4E060034343F0BF63FA
:1007E80043F40033D360704700ED00E000B5194BC7
:1007F800DB68C3F30223C3F1070CBCF1040F28BF65
:100808004FF0040C03F1040EBEF1060F18D9033B98
:100818004FF0FF3E0EFA0CFC21EA0C0199400EFA4B
:1008280003F322EA0303194300280BDB0901C9B2C9
:1008380000F1604000F5614080F800135DF804FBAA
:100848000023E5E700F00F000901C9B2024B195473
:10085800F4E700BF00ED00E014ED00E0002807DB3E
:1008680000F01F02400901239340024A42F8203059
:10087800704700BF00E100E00138B0F1807F0BD283
:100888004FF0E0235861054AF02182F82310002038
:10089800986107221A6170470120704700ED00E057
:1008A8000268054B1344054AA2FB03231B099B005E
:1008B8000364034BC3637047F8FFFDBFCDCCCCCCBA
:1008C8000000024020B310B50446022380F821300E
:1008D80001680A6822F47F5222F030024368806877
:1008E8000343E06803432069034360690343A06945
:1008F8000343E069034313430B602046FFF7D0FF2F
:100908000020A063012384F8213084F8200010BD62
:100918000120704790F82130022B06D0042383630E
:10092800002380F82030012070470268136823F004
:100938000E0313600268136823F001031360036C4D
:10094800C16B012202FA03F34B6080F821200023D7
:1009580080F820301846704708B590F82130022BEF
:1009680003D004238363012008BD0268136823F0C1
:100978000E0313600268136823F001031360036C0D
:10098800C16B012202FA03F34B6080F82120002397
:1009980080F82030436B13B198470020E4E700202B
:1009A800E2E738B5C36B1A6804682568016C04234C
:1009B8008B40134213D015F0040F10D0236813F0A6
:1009C800200F03D1236823F004032360016CC26B5A
:1009D80004238B405360C36A03B1984738BD022390
:1009E8008B4013421AD015F0020F17D0236813F06A
:1009F800200F06D1236823F00A032360012380F81F
:100A08002130016CC26B02238B405360002380F8B5
:100A18002030836A002BE1D09847DFE7082303FAE8
:100A280001F11142DAD015F0080FD7D0236823F06E
:100A38000E032360026CC16B012303FA02F24A60C1
:100A4800836380F82130002380F82030036B002B6B
:100A5800C4D09847C2E70000F0B583B0002336E061
:100A6800032400E00024B4403C4302355D4E46F8C0
:100A780025405D4C2568D44325EA02064F6817F4E3
:100A8800803F01D042EA0506574D2E606D6804EAA2
:100A980005064F6817F4003F01D042EA0506524D9B
:100AA8006E60AD6804EA05064F6817F4801F01D030
:100AB80042EA05064C4DAE60ED682C404E6816F4CF
:100AC800001F01D042EA0504474AD46001330A688E
:100AD80032FA03F400F083804FF0010C0CFA03FCA7
:100AE8001CEA0202F2D04C68651E012D03D9112CB4
:100AF80001D0122C13D185685E000324B44025EA86
:100B08000405CC68B4402C438460446824EA0C0C87
:100B18004C68C4F300149C4044EA0C044460C66862
:100B28004FEA430C032505FA0CF5EC4326EA050EBB
:100B38008D6805FA0CF545EA0E05C5604D68022D6D
:100B480001D0122D12D1DE08083650F8267003F0B5
:100B580007054FEA850E0F2505FA0EF527EA050762
:100B68000D6905FA0EF53D4340F826500568254005
:100B78004C6804F0030404FA0CF42C4304604C6839
:100B880014F0805FA2D0194CA56945F00105A56154
:100B9800A46904F001040194019C9D08AE1C114C49
:100BA80054F8267003F00304A6000F24B44027EA83
:100BB8000407B0F1904F3FF455AF0D4CA0420AD056
:100BC80004F58064A04208D004F58064A0423FF494
:100BD80047AF052447E7012445E7022443E703B06C
:100BE800F0BD00BF000001400004014000100240B9
:100BF800000400480AB18161704781627047036848
:100C08009A6912F0020F01D000229A6203689A6969
:100C180012F0010F03D19A6942F001029A617047FC
:100C280030B4029D046860684FEA555C0CF4806C2F
:100C38004CF07F7C4CF4583C4CF47F7C4CF0030C1B
:100C480020EA0C00C1F3090141EA02411943294392
:100C58000143616030BC7047F8B505460E4617463B
:100C680003689B6913F0100F01D10020F8BD2B68B1
:100C78009C6914F0200F17D1B6F1FF3FF7D0FFF7AA
:100C880089FDC01BB04201D8002EF0D16B6C43F037
:100C980020036B64202385F84130002385F8423017
:100CA80085F840300120E1E71022DA612B68202422
:100CB800DC612846FFF7A3FF2A68536823F0FF7317
:100CC80023F48B3323F4FF7323F0010353606B6C1D
:100CD80043F004036B6485F84140002385F84230F3
:100CE80085F840300120C1E770B504460D46164628
:100CF80023689B6913F0020F1DD13246294620460E
:100D0800FFF7AAFFC8B9B5F1FF3FF1D0FFF742FDE1
:100D1800801BA84201D8002DEAD1636C43F0200360
:100D28006364202384F84130002384F8423084F837
:100D38004030012000E0002070BD0120FCE72DE9D3
:100D4800F0410646884617461D463468A46938EAC5
:100D580004030CBF4FF0010C4FF0000CBC4518D138
:100D6800B5F1FF3FF1D0FFF715FD069BC01AA84269
:100D780001D8002DE9D1736C43F02003736420235C
:100D880086F84130002386F8423086F8403001204A
:100D980000E00020BDE8F08170B505460C46164617
:100DA8002B689B6913F0200F1AD13246214628463A
:100DB800FFF752FFB0B9FFF7EDFC801BA04201D846
:100DC800002CEDD16B6C43F020036B64202385F875
:100DD8004130002385F8423085F84030012070BD4D
:100DE8000020FCE70120FAE770B504460D461646D8
:100DF80023689B6913F0040F3ED1324629462046EA
:100E0800FFF72AFF0146002838D123689A6912F0B3
:100E1800200F13D1FFF7BEFC801BA84201D8002D7C
:100E2800E6D1636C43F020036364202384F84130E7
:100E3800002384F840300121084670BD9A6912F0F9
:100E4800040F02D0228D002AF6D12022DA6121680F
:100E58004B6823F0FF7323F48B3323F4FF7323F0E1
:100E680001034B600023636484F8412084F8423016
:100E780084F840300121DFE70021DDE70121DBE7CD
:100E8800002859D010B5044690F84130002B43D0C3
:100E9800242384F841302268136823F00103136087
:100EA8006368226823F0706313612268936823F4EF
:100EB80000439360E368012B33D0A368226843F4AE
:100EC80004439360E368022B31D02268536843F0EF
:100ED800007343F4004353602268D36823F400434B
:100EE800D360236962691343A169226843EA012335
:100EF800D360E369216A22680B4313602268136890
:100F080043F00103136000206064202384F841301B
:100F1800206384F8420010BD80F84030FFF7E2FA01
:100F2800B6E7A368226843F400439360CAE72368DE
:100F38004FF400625A60C8E7012070472DE9F04776
:100F480082B00F460A9E90F84110C9B2202940F09D
:100F5800A38004469046994690F84030012B00F053
:100F68009F804FF0010A80F840A0FFF713FC054668
:100F78000090192352464FF400412046FFF7DFFE48
:100F8800002840F08F80212384F84130102384F812
:100F9800423000236364C4F82480A4F82A90636371
:100FA800638D9BB2FF2B0AD9FF222285414B009308
:100FB8004FF0807339462046FFF732FE18E0628D05
:100FC80092B222853B4B00934FF00073D2B2394660
:100FD8002046FFF725FE0BE0628D92B222850023A2
:100FE80000934FF00073D2B239462046FFF718FE3F
:100FF800638D9BB2002B33D02A4631462046FFF73B
:1010080073FE002850D1626A236812789A62636A74
:1010180001336362638D9BB2013B9BB26385238D71
:10102800013B9BB22385628D92B2002AE0D0002B4F
:10103800DED100953346002280212046FFF77FFE4F
:10104800A0BB638D9BB2FF2BC6D9FF22228500234C
:1010580000934FF0807339462046FFF7E1FDC7E75C
:101068002A4631462046FFF797FE08BB2368202210
:10107800DA6121684B6823F0FF7323F48B3323F480
:10108800FF7323F001034B6084F84120002384F8A8
:10109800423084F8403000E0022002B0BDE8F0871A
:1010A8000220FAE70120F8E70120F6E70120F4E73B
:1010B8000120F2E7002000802DE9F04782B00F46BA
:1010C8000A9E90F84110C9B2202940F0A280044637
:1010D8009046994690F84030012B00F09E804FF0E2
:1010E800010A80F840A0FFF755FB05460090192338
:1010F80052464FF400412046FFF721FE002840F0F9
:101108008E80222384F84130102384F84230002353
:101118006364C4F82480A4F82A906363638D9BB247
:10112800FF2B0AD9FF222285414B00934FF0807391
:1011380039462046FFF774FD18E0628D92B2228589
:101148003B4B00934FF00073D2B239462046FFF76D
:1011580067FD0BE0628D92B22285002300934FF069
:101168000073D2B239462046FFF75AFD638D9BB211
:10117800002B32D02A4631462046FFF735FE00289C
:101188004FD123685A6A636A1A70636A01336362CB
:10119800228D013A92B22285638D9BB2013B9BB2AC
:1011A8006385638D9BB2002BE0D0002ADED10095C9
:1011B800334680212046FFF7C2FDA0BB638D9BB25A
:1011C800FF2BC7D9FF222285002300934FF080739D
:1011D80039462046FFF724FDC8E72A46314620460F
:1011E800FFF7DAFD08BB23682022DA6121684B6823
:1011F80023F0FF7323F48B3323F4FF7323F00103ED
:101208004B6084F84120002384F8423084F8403051
:1012180000E0022002B0BDE8F0870220FAE70120D2
:10122800F8E70120F6E70120F4E70120F2E700BF24
:101238000024008090F84130DBB2202B24D190F8B4
:101248004030012B22D0012380F84030242380F83D
:1012580041300268136823F00103136002681368C1
:1012680023F48053136002681368194311600268FD
:10127800136843F001031360202380F841300023F2
:1012880080F84030184670470220704702207047A7
:1012980090F84130DBB2202B22D190F84030012B5E
:1012A80020D0012380F84030242380F841300268A0
:1012B800136823F0010313600268136823F4706352
:1012C80043EA012111600268136843F001031360C7
:1012D800202380F84130002380F8403018467047BA
:1012E8000220704702207047002800F0018370B583
:1012F80082B00446036813F0010F3BD0B54B5B681E
:1013080003F00C03042B1ED0B24B5B6803F00C03F4
:10131800082B13D06368B3F5803F68D0002B40F0EA
:10132800928003F1804303F504331A6822F4803273
:101338001A601A6822F480221A605DE0A54B5B6887
:1013480013F4803FE6D04FF4003393FAA3F3A14B94
:1013580019684FF4003393FAA3F3B3FA83F303F055
:101368001F03012202FA03F30B4203D06368002B28
:1013780000F0C082236813F0020F00F0C580954B7F
:101388005B6813F00C0F00F09C80924B5B6803F0D5
:101398000C03082B00F08F802369002B00F0F280EB
:1013A800012292FAA2F3B3FA83F303F1845303F50B
:1013B80084139B001A60FFF7EDF90546022393FAA0
:1013C800A3F3844B1968022393FAA3F3B3FA83F3C4
:1013D80003F01F03012202FA03F30B4240F0C3801B
:1013E800FFF7D8F9401B0228E8D903208BE2794A95
:1013F800136843F480331360764AD36A23F00F03EB
:10140800A1680B43D3626368002B36D0FFF7C2F99B
:1014180005464FF4003393FAA3F36E4B19684FF463
:10142800003393FAA3F3B3FA83F303F01F03012203
:1014380002FA03F30B429DD1FFF7ACF9401B642875
:10144800E7D903205FE2B3F5A02F09D0614B1A68F2
:1014580022F480321A601A6822F480221A60CBE7DC
:1014680003F18043A3F53C331A6842F480221A60E2
:101478001A6842F480321A60BEE7FFF78BF9054616
:101488004FF4003393FAA3F3524B19684FF4003327
:1014980093FAA3F3B3FA83F303F01F03012202FACA
:1014A80003F30B423FF466AFFFF774F9401B64285F
:1014B800E6D9032027E2474B5B6813F4803F7FF4AB
:1014C8006BAF022393FAA3F3424B1968022393FAF2
:1014D800A3F3B3FA83F303F01F03012202FA03F321
:1014E8000B4203D02369934240F0068239480368CF
:1014F80023F0F8036169F82292FAA2F2B2FA82F2B2
:1015080001FA02F213430360236813F0080F00F096
:101518008D80A369002B61D0012191FAA1F2B2FA62
:1015280082F22D4B13449B001960FFF733F90546EF
:10153800022393FAA3F293FAA3F293FAA3F2254AA9
:10154800516A93FAA3F3B3FA83F303F01F0301225A
:1015580002FA03F30B4269D1FFF71CF9401B02287A
:10156800E6D90320CFE11B48036823F0F80361693B
:10157800F82292FAA2F2B2FA82F201FA02F21343C4
:101588000360C1E7012393FAA3F3B3FA83F303F1EA
:10159800845303F584139B0000221A60FFF7FAF8BE
:1015A8000546022393FAA3F30A4B1968022393FA18
:1015B800A3F3B3FA83F303F01F03012202FA03F340
:1015C8000B42A1D0FFF7E6F8401B0228E9D9032017
:1015D80099E100BF0010024020819010012292FA88
:1015E800A2F2B2FA82F2B74B13449B0000221A60AF
:1015F800FFF7D0F80546022393FAA3F293FAA3F271
:1016080093FAA3F2B04A516A93FAA3F3B3FA83F3B5
:1016180003F01F03012202FA03F30B4206D0FFF77F
:10162800B9F8401B0228E6D903206CE1236813F0BF
:10163800040F00F0A980A44BDB6913F0805F20D170
:10164800A14BDA6942F08052DA61DB6903F080531A
:101658000193019B01259D4B1B6813F4807F12D0D9
:10166800E368012B23D073BB03F1804303F50433F4
:101678001A6A22F001021A621A6A22F004021A6235
:101688001AE00025E7E7914A136843F48073136072
:10169800FFF780F806468D4B1B6813F4807FDFD177
:1016A800FFF778F8801B6428F5D903202BE1864AD8
:1016B800136A43F001031362E368002B3CD0FFF781
:1016C80069F806462BE0052B09D07F4B1A6A22F0F1
:1016D80001021A621A6A22F004021A62ECE77A4BD3
:1016E8001A6A42F004021A621A6A42F001021A6285
:1016F800E2E7754B196A022393FAA3F3B3FA83F36B
:1017080003F01F03012202FA03F319423BD1FFF74A
:1017180041F8801B41F28833984200F2EF8002239F
:1017280093FAA3F293FAA3F3002BE2D1022393FADC
:10173800A3F3654B596ADEE7FFF72CF8064615E078
:10174800614B196A022393FAA3F3B3FA83F303F004
:101758001F03012202FA03F3194214D0FFF71AF803
:10176800801B41F28833984200F2CA80022393FA20
:10177800A3F293FAA3F3002BE2D1022393FAA3F383
:10178800514B596ADEE7B5BBE369002B00F0BA801C
:101798004D4A526802F00C02082A00F09980022B88
:1017A8002FD04FF0807393FAA3F3B3FA83F303F1C6
:1017B800845303F584139B0000221A60FEF7EAFFA6
:1017C80004464FF0007393FAA3F33F4B19684FF0A8
:1017D800007393FAA3F3B3FA83F303F01F03012210
:1017E80002FA03F319426BD0FEF7D4FF001B02285C
:1017F800E7D9032087E0344AD36923F08053D361C3
:10180800C2E74FF0807393FAA3F3B3FA83F303F1BB
:10181800845303F584139B0000221A60FEF7BAFF75
:1018280005464FF0007393FAA3F3274B19684FF05E
:10183800007393FAA3F3B3FA83F303F01F030122AF
:1018480002FA03F3194206D0FEF7A4FF401B022850
:10185800E7D9032057E01C494B6823F47413626AE4
:10186800206A024313434B604FF0807393FAA3F34B
:10187800B3FA83F303F1845303F584139B00012225
:101888001A60FEF787FF04464FF0007393FAA3F33C
:101898000D4B19684FF0007393FAA3F3B3FA83F36F
:1018A80003F01F03012202FA03F3194206D1FEF7DF
:1018B80071FF001B0228E7D9032024E0002022E062
:1018C800002020E0208190100010024000700040AD
:1018D800012B1AD0104B5B6803F48031226A9142C5
:1018E80015D103F47013626A934212D100200AE002
:1018F80001207047012006E0012004E0032002E0F7
:10190800032000E0002002B070BD0120FBE70120A9
:10191800F9E70120F7E700BF00100240164B5B68AB
:1019280003F00C02082A01D01448704703F4701120
:101938004FF4701292FAA2F2B2FA82F221FA02F28B
:101948000F49885C0C4AD26A02F00F020F2191FA03
:10195800A1F1B1FA81F1CA400A498A5C13F4803FC7
:1019680005D0064BB3FBF2F303FB00F07047064BC0
:1019780003FB00F0704700BF0010024000127A001D
:10198800542700086427000800093D00002800F0DB
:10199800BE8070B50D460446614B1B6803F0070313
:1019A8008B420BD25E4A136823F007030B43136084
:1019B800136803F007038B4240F0AB80236813F0F1
:1019C800020F06D0574A536823F0F003A1680B436F
:1019D8005360236813F0010F5AD06368012B2DD090
:1019E800022B40D0022292FAA2F24E4A106802223A
:1019F80092FAA2F2B2FA82F202F01F02012101FA6F
:101A080002F2104200F0878046494A6822F0030239
:101A180013434B60FEF7BEFE0646424B5B6803F07D
:101A28000C036268B3EB820F32D0FEF7B3FE801B63
:101A380041F288339842F0D9032067E04FF400322E
:101A480092FAA2F2374A10684FF4003292FAA2F2E0
:101A5800B2FA82F202F01F02012101FA02F20242F6
:101A6800D2D1012052E04FF0007292FAA2F22D4A30
:101A780010684FF0007292FAA2F2B2FA82F202F003
:101A88001F02012101FA02F21042BDD101203DE0FE
:101A9800234B1B6803F00703AB420AD9204A13689B
:101AA80023F007032B431360136803F00703AB42CB
:101AB80033D1236813F0040F06D01A4A536823F46D
:101AC800E063E1680B435360236813F0080F07D005
:101AD800144A536823F46053216943EAC1035360ED
:101AE800FFF71CFF0F4B5B6803F0F003F02292FA3C
:101AF800A2F2B2FA82F2D3400B4AD35CD8400B4B25
:101B080018600B4B1868FEF701FE002070BD01201D
:101B180070470120FAE70120F8E70120F6E700BF47
:101B280000200240001002403C270008040000206A
:101B38000C000020014B1868704700BF040000200B
:101B480008B5FFF7F7FF074B5B6803F4E0634FF452
:101B5800E06292FAA2F2B2FA82F2D340024AD35C6D
:101B6800D84008BD001002404C27000808B5FFF710
:101B7800E1FF074B5B6803F460534FF4605292FA3D
:101B8800A2F2B2FA82F2D340024AD35CD84008BD2E
:101B9800001002404C270008F0B583B004460368E3
:101BA80013F4803F48D0864BDB6913F0805F40F028
:101BB800BE80834BDA6942F08052DA61DB6903F058
:101BC80080530193019B01257E4B1B6813F4807F92
:101BD80000F0AF807A4B1B6A13F4407322D062681E
:101BE80002F440729A421DD07548016A21F4407689
:101BF8004FF4803393FAA3F2B2FA82F2724F3A4466
:101C080092004FF0010CC2F800C093FAA3F3B3FAA4
:101C180083F33B449B0000221A60066211F0010F17
:101C280040F09C80664A136A23F4407361680B4352
:101C38001362002D40F0B980236813F0010F06D01D
:101C48005F4A136B23F00303A1680B4313632368F4
:101C580013F0200F06D05A4A136B23F01003E168E3
:101C68000B431363236813F4003F06D0544A5368A8
:101C780023F48003216B0B435360236813F0400F58
:101C880006D04F4A136B23F0200321690B431363DB
:101C9800236813F4004F06D0494A136B23F040031E
:101CA80061690B431363236813F4007F06D0444A29
:101CB800536823F40003E1690B435360236813F06E
:101CC800800F06D03E4AD36A23F4F873A1690B4308
:101CD800D362236813F4805F06D0394A136B23F468
:101CE8008073216A0B431363236813F4802F06D093
:101CF800334A136B23F48063616A0B4313632368CD
:101D080013F4002F06D02E4A136B23F40063A16A44
:101D18000B431363236813F4801F4DD0284A136BB9
:101D280023F40053E16A0B431363002045E00025C8
:101D38004AE7244A136843F480731360FEF72AFDC8
:101D48000646204B1B6813F4807F7FF443AFFEF7F1
:101D580021FD801B6428F4D903202EE0FEF71AFD2C
:101D6800064615E0164B196A022393FAA3F3B3FA51
:101D780083F303F01F03012202FA03F30B427FF4FB
:101D880051AFFEF707FD801B41F28833984211D806
:101D9800022393FAA3F293FAA3F3002BE2D10223CE
:101DA80093FAA3F3064B596ADEE7D36923F080530D
:101DB800D36141E7032000E0002003B0F0BD00BF7D
:101DC8000010024000700040008190100268136803
:101DD80023F4907313600268936823F001039360FF
:101DE800036E012B05D02023C367002303664366D7
:101DF80070470268136823F010031360F3E7704715
:101E080008B501680A6822F040020A602022826749
:101E180000228266FFF7F3FF08BD704708B5406AE5
:101E28000023A0F85A30A0F85230FFF7F6FF08BD9B
:101E38007047000070B504460168CB6908688D6872
:101E480040F60F021A4005D113F0200F02D010F00F
:101E5800200F20D12AB115F0010222D1934E304231
:101E68001FD1226E012A00F0A28013F4801F03D034
:101E780015F4800F40F0088113F0800F03D010F0A4
:101E8800800F40F0088113F0400F03D010F0400F8E
:101E980040F0088170BD636E002BFBD02046984748
:101EA800F8E713F0010F09D010F4807F06D0012560
:101EB8000D62D4F880102943C4F8801013F0020F83
:101EC80009D042B1216802250D62D4F8801041F092
:101ED8000401C4F8801013F0040F09D042B121683E
:101EE80004250D62D4F8801041F00201C4F8801076
:101EF80013F0080F0BD010F0200F00D13AB1226870
:101F080008211162D4F880200A43C4F8802013F411
:101F1800006F0CD010F0806F09D022684FF4006178
:101F28001162D4F8802042F02002C4F88020D4F84E
:101F38008020002AAED013F0200F06D010F0200F1A
:101F480003D0636E0BB120469847D4F880202368ED
:101F58009B6813F0400F02D112F0280F20D02046C2
:101F6800FFF734FF23689A6812F0400F14D09A687C
:101F780022F040029A60236F53B14D4A5A63206F92
:101F8800FEF7EAFC002885D0206F436B984781E76D
:101F98002046FFF742FF7DE72046FFF73EFF79E73F
:101FA8002046FFF73AFF0023C4F8803072E713F0A9
:101FB800100F3FF45AAF10F0100F3FF456AF102334
:101FC8000B622268936813F0400F36D0216F0B68BC
:101FD8005B689BB2002B3FF45DAFB4F858009842A1
:101FE8007FF658AFA4F85A308B69202B0AD1B4F881
:101FF8005810B4F85A309BB2C91A89B22046FFF774
:1020080017FF47E7136823F4807313602268936807
:1020180023F0010393602268936823F040039360E0
:102028002023E367002323662268136823F0100344
:102038001360206FFEF76EFCD9E7B4F85810B4F8B7
:102048005A309BB2C91A89B2B4F85A309BB2002BE5
:102058003FF420AF00293FF41DAF136823F49073B9
:1020680013602268936823F0010393602023E367D9
:102078000023236663662268136823F01003136045
:102088002046FFF7D5FE05E74FF480130B62204684
:1020980000F050FAFEE6A36E002B3FF4FBAE20469C
:1020A8009847F7E62046FFF7ABFEF3E62001000469
:1020B800251E000810B50446836802691343426967
:1020C8001343C2691343016808684E4A0240134328
:1020D8000B602268536823F44053E1680B43536054
:1020E800A269236A1A4321688B6823F43063134377
:1020F8008B602368444A934214D0444A934227D0C1
:1021080002F5806293421FD01023E069B0F5004FBA
:1021180020D0082B70D8DFE803F04A60486F636F5F
:102128006F6F66003A4B1B6B03F00303032B09D850
:10213800DFE803F00204060C0023E6E70423E4E7E3
:102148000823E2E71023E0E70023DEE70223DCE7C9
:102158000023DAE7082B49D8DFE803F0051F2548F4
:10216800224848480900FFF7EBFC002840D0626885
:10217800530803EB4000B0FBF2F080B2A0F110026C
:102188004FF6EF739A4235D820F00F03C0F34200A0
:1021980018432368D86000201BE0FFF7E7FCE4E75A
:1021A800FFF7BCFBE1E71B48E1E71A4802E0FFF74D
:1021B800C7FC18B3636800EB5300B0FBF3F080B2C0
:1021C800A0F110024FF6EF739A4219D82368D8602D
:1021D800002000236366A36610BDFFF7C7FCE8E78D
:1021E800FFF79CFBE5E74FF40040E3E70120F0E749
:1021F8000020EEE70120ECE70120EAE70020E8E70D
:102208000120E6E7F369FFEF003801400044004091
:102218000010024000127A00436A13F0010F06D042
:102228000268536823F40033816A0B435360436A9E
:1022380013F0020F06D00268536823F48033C16A92
:102248000B435360436A13F0040F06D002685368C7
:1022580023F48023016B0B435360436A13F0080F88
:1022680006D00268536823F40043416B0B43536064
:10227800436A13F0100F06D00268936823F4805362
:10228800816B0B439360436A13F0200F06D00268FA
:10229800936823F40053C16B0B439360436A13F0B4
:1022A800400F0AD00268536823F48013016C0B4373
:1022B8005360036CB3F5801F0BD0436A13F0800F93
:1022C80006D00268536823F40023816C0B435360E3
:1022D80070470268536823F4C003416C0B43536092
:1022E800EBE72DE9F84305460F4616469946DDF813
:1022F80020802C68E46937EA04030CBF4FF0010C16
:102308004FF0000CB4453DD1B8F1FF3FF1D0FEF7D6
:1023180041FAA0EB0900404522D8B8F1000F1FD0C0
:102328002B681A6812F0040FE3D0DA6912F4006F10
:10233800DFD04FF400621A622A68136823F4D0735E
:1023480013602A68936823F0010393602023AB6726
:10235800EB67C5F88030002385F87430032012E05D
:102368002A68136823F4D07313602A68936823F0EB
:10237800010393602023AB67EB67002385F8743073
:10238800032000E00020BDE8F8832DE9F04182B089
:102398001E46836F202B56D104460D4690460029D1
:1023A80055D0002A55D090F87430012B53D0012312
:1023B80080F874300023C0F8803021238367FEF74B
:1023C800E9F90746A4F85080A4F85280A368B3F549
:1023D800805F05D04FF00008002384F8743014E0C3
:1023E800236913B14FF00008F6E7A8460025F3E784
:1023F80038F8023B2268C3F308031385B4F8522067
:1024080092B2013A92B2A4F85220B4F852309BB278
:1024180073B100963B46002280212046FFF761FFFA
:10242800D8B9002DE4D0236815F8012B1A85E5E703
:1024380000963B46002240212046FFF752FF70B924
:102448002023A36700E0022002B0BDE8F08101204C
:10245800FAE70120F8E70220F6E70320F4E7032073
:10246800F2E730B583B004460023C0F88030FEF7A9
:1024780091F905462268126812F0080F0DD12368F9
:102488001B6813F0040F16D12023A367E36700200D
:10249800206684F8740003B030BD6FF07E4300936B
:1024A800034600224FF400112046FFF71AFF0028C8
:1024B800E5D00320EFE76FF07E4300932B46002220
:1024C8004FF480012046FFF70CFF0028DCD00320E2
:1024D800E1E768B310B50446836F03B32423A36709
:1024E8002268136823F0010313602046FFF7E2FD1A
:1024F800012813D0636ABBB92268536823F4904358
:1025080053602268936823F02A0393602268136853
:1025180043F0010313602046FFF7A3FF10BD80F8C6
:102528007430FEF72FF8D9E72046FFF775FEE3E78A
:10253800012070477047000070B50D4E0D4D761B99
:10254800B61006D0002455F8043B01349847A6423B
:10255800F9D1094E094D761B00F0D4F8B61006D013
:10256800002455F8043B01349847A642F9D170BDC0
:1025780078270008782700088027000878270008AF
:10258800830730B548D0541E002A3FD0CAB203464C
:1025980001E0013C3AD303F8012B9D07F9D1032C44
:1025A8002DD9CDB245EA05250F2C45EA054536D982
:1025B800A4F1100222F00F0C03F1200EE6444FEABA
:1025C800121C03F1100242E9045542E90255103287
:1025D8007245F8D10CF1010214F00C0F03EB021252
:1025E80004F00F0C13D0ACF1040323F003030433FD
:1025F800134442F8045B9342FBD10CF003042CB162
:10260800CAB21C4403F8012B9C42FBD130BD64467E
:102618001346002CF4D1F9E703461446BFE71A46DF
:10262800A446E0E7024B13B1024800F005B8704732
:10263800000000004D260008002301461A461846EF
:1026480000F01AB838B5084B084D5B1B9C1007D032
:10265800043B1D44013C55F804399847002CF9D136
:10266800BDE8384000F054B88427000880270008E7
:10267800704700BF704700BF2DE9F047DFF87CA026
:102688000646DAF8000098460F469146FFF7F0FF35
:102698001B4B1B68D3F8484124B365681F2D26DC03
:1026A8005EB96B1C0235DAF80000636044F82570E7
:1026B800FFF7E0FF0020BDE8F08704EB8501012368
:1026C800C1F88890D4F88821AB401A43022EC4F888
:1026D8008821C1F80881E4D1D4F88C211343C4F8C7
:1026E8008C31DEE703F5A674C3F84841D5E7DAF87C
:1026F8000000FFF7BFFF4FF0FF30DCE73804002091
:1027080074270008F8B500BFF8BC08BC9E4670479F
:0C271800F8B500BFF8BC08BC9E46704736
:102724004572726F722054780D0A0000537563630A
:102734006573730D0A000000000000000000000033
:102744000102030406070809000000000102030453
:1027540002030405060708090A0B0C0D0E0F1010DE
:102764000102030405060708090A0B0C0D0E0F10DD
:042774001000002031
:082778002D260008AD01000848
:0427800089010008C3
:102784006800000000127A00010000001000000040
:1027940000000000FC02002064030020CC030020A1
:1027A4000000000000000000000000000000000025
:1027B4000000000000000000000000000000000015
:1027C4000000000000000000000000000000000005
:1027D40000000000000000000000000000000000F5
:1027E40000000000000000000000000000000000E5
:1027F40000000000000000000000000000000000D5
:1028040000000000000000000000000000000000C4
:1028140000000000000000000000000000000000B4
:1028240000000000000000000000000000000000A4
:102834000000000000000000010000000000000093
:102844000E33CDAB34126DE6ECDE05000B00000058
:102854000000000000000000000000000000000074
:102864000000000000000000000000000000000064
:102874000000000000000000000000000000000054
:102884000000000000000000000000000000000044
:0C2BB4000000000000000000640600208B
:04000005080006C128
:00000001FF
